{
  "_format": "hh-sol-artifact-1",
  "contractName": "AccessManager",
  "sourceName": "contracts/AccessManager.sol",
  "abi": [
    {
      "inputs": [],
      "stateMutability": "nonpayable",
      "type": "constructor"
    },
    {
      "anonymous": false,
      "inputs": [
        {
          "indexed": true,
          "internalType": "bytes32",
          "name": "role",
          "type": "bytes32"
        },
        {
          "indexed": true,
          "internalType": "bytes32",
          "name": "previousAdminRole",
          "type": "bytes32"
        },
        {
          "indexed": true,
          "internalType": "bytes32",
          "name": "newAdminRole",
          "type": "bytes32"
        }
      ],
      "name": "RoleAdminChanged",
      "type": "event"
    },
    {
      "anonymous": false,
      "inputs": [
        {
          "indexed": true,
          "internalType": "bytes32",
          "name": "role",
          "type": "bytes32"
        },
        {
          "indexed": true,
          "internalType": "address",
          "name": "account",
          "type": "address"
        },
        {
          "indexed": true,
          "internalType": "address",
          "name": "sender",
          "type": "address"
        }
      ],
      "name": "RoleGranted",
      "type": "event"
    },
    {
      "anonymous": false,
      "inputs": [
        {
          "indexed": true,
          "internalType": "bytes32",
          "name": "role",
          "type": "bytes32"
        },
        {
          "indexed": true,
          "internalType": "address",
          "name": "account",
          "type": "address"
        },
        {
          "indexed": true,
          "internalType": "address",
          "name": "sender",
          "type": "address"
        }
      ],
      "name": "RoleRevoked",
      "type": "event"
    },
    {
      "inputs": [],
      "name": "DATA_MANAGER_ROLE",
      "outputs": [
        {
          "internalType": "bytes32",
          "name": "",
          "type": "bytes32"
        }
      ],
      "stateMutability": "view",
      "type": "function"
    },
    {
      "inputs": [],
      "name": "DEFAULT_ADMIN_ROLE",
      "outputs": [
        {
          "internalType": "bytes32",
          "name": "",
          "type": "bytes32"
        }
      ],
      "stateMutability": "view",
      "type": "function"
    },
    {
      "inputs": [],
      "name": "DEVICE_MANAGER_ROLE",
      "outputs": [
        {
          "internalType": "bytes32",
          "name": "",
          "type": "bytes32"
        }
      ],
      "stateMutability": "view",
      "type": "function"
    },
    {
      "inputs": [],
      "name": "GLOBAL_ADMIN_ROLE",
      "outputs": [
        {
          "internalType": "bytes32",
          "name": "",
          "type": "bytes32"
        }
      ],
      "stateMutability": "view",
      "type": "function"
    },
    {
      "inputs": [],
      "name": "ORACLE_ROLE",
      "outputs": [
        {
          "internalType": "bytes32",
          "name": "",
          "type": "bytes32"
        }
      ],
      "stateMutability": "view",
      "type": "function"
    },
    {
      "inputs": [
        {
          "internalType": "bytes32",
          "name": "role",
          "type": "bytes32"
        }
      ],
      "name": "getRoleAdmin",
      "outputs": [
        {
          "internalType": "bytes32",
          "name": "",
          "type": "bytes32"
        }
      ],
      "stateMutability": "view",
      "type": "function"
    },
    {
      "inputs": [
        {
          "internalType": "bytes32",
          "name": "role",
          "type": "bytes32"
        },
        {
          "internalType": "uint256",
          "name": "index",
          "type": "uint256"
        }
      ],
      "name": "getRoleMember",
      "outputs": [
        {
          "internalType": "address",
          "name": "",
          "type": "address"
        }
      ],
      "stateMutability": "view",
      "type": "function"
    },
    {
      "inputs": [
        {
          "internalType": "bytes32",
          "name": "role",
          "type": "bytes32"
        }
      ],
      "name": "getRoleMemberCount",
      "outputs": [
        {
          "internalType": "uint256",
          "name": "",
          "type": "uint256"
        }
      ],
      "stateMutability": "view",
      "type": "function"
    },
    {
      "inputs": [
        {
          "internalType": "bytes32",
          "name": "role",
          "type": "bytes32"
        },
        {
          "internalType": "address",
          "name": "account",
          "type": "address"
        }
      ],
      "name": "grantRole",
      "outputs": [],
      "stateMutability": "nonpayable",
      "type": "function"
    },
    {
      "inputs": [
        {
          "internalType": "bytes32",
          "name": "role",
          "type": "bytes32"
        },
        {
          "internalType": "address",
          "name": "account",
          "type": "address"
        }
      ],
      "name": "hasRole",
      "outputs": [
        {
          "internalType": "bool",
          "name": "",
          "type": "bool"
        }
      ],
      "stateMutability": "view",
      "type": "function"
    },
    {
      "inputs": [
        {
          "internalType": "bytes32",
          "name": "role",
          "type": "bytes32"
        },
        {
          "internalType": "address",
          "name": "account",
          "type": "address"
        }
      ],
      "name": "renounceRole",
      "outputs": [],
      "stateMutability": "nonpayable",
      "type": "function"
    },
    {
      "inputs": [
        {
          "internalType": "bytes32",
          "name": "role",
          "type": "bytes32"
        },
        {
          "internalType": "address",
          "name": "account",
          "type": "address"
        }
      ],
      "name": "revokeRole",
      "outputs": [],
      "stateMutability": "nonpayable",
      "type": "function"
    },
    {
      "inputs": [
        {
          "internalType": "bytes4",
          "name": "interfaceId",
          "type": "bytes4"
        }
      ],
      "name": "supportsInterface",
      "outputs": [
        {
          "internalType": "bool",
          "name": "",
          "type": "bool"
        }
      ],
      "stateMutability": "view",
      "type": "function"
    }
  ],
  "bytecode": "0x60806040523480156200001157600080fd5b506200001f600033620001be565b6200003a60008051602062000fa183398151915233620001be565b60408051600480825260a082019092526000916020820160808036833701905050905060008051602062000fa18339815191528160008151811062000083576200008362000347565b6020026020010181815250507fd467a5e095ce9c4c4990c87ea364419e874fc48520db2db46312f0e95ebbd14b81600181518110620000c657620000c662000347565b6020026020010181815250507fc7b831d99cd5e059fa682a05c265332c78b15cedd3a8c05388d47c623bd50f418160028151811062000109576200010962000347565b6020026020010181815250507f352d05fe3946dbe49277552ba941e744d5a96d9c60bc1ba0ea5f1d3ae000f7c8816003815181106200014c576200014c62000347565b60200260200101818152505060005b8151811015620001b657620001ad8282815181106200017e576200017e62000347565b602002602001015182600014620001a55760008051602062000fa1833981519152620001e9565b6000620001e9565b6001016200015b565b50506200035d565b620001ca828262000234565b6000828152600160205260409020620001e49082620002d5565b505050565b600082815260208190526040808220600101805490849055905190918391839186917fbd79b86ffe0ab8e8776151514217cd7cacd52c909f66475c3af44e129f0b00ff9190a4505050565b6000828152602081815260408083206001600160a01b038516845290915290205460ff16620002d1576000828152602081815260408083206001600160a01b03851684529091529020805460ff19166001179055620002903390565b6001600160a01b0316816001600160a01b0316837f2f8788117e7eff1d82e926ec794901d17c78024a50270940304540a733656f0d60405160405180910390a45b5050565b6000620002ec836001600160a01b038416620002f5565b90505b92915050565b60008181526001830160205260408120546200033e57508154600181810184556000848152602080822090930184905584548482528286019093526040902091909155620002ef565b506000620002ef565b634e487b7160e01b600052603260045260246000fd5b610c34806200036d6000396000f3fe608060405234801561001057600080fd5b50600436106100cf5760003560e01c80638b78f4a41161008c578063a217fddf11610066578063a217fddf14610208578063ca15c87314610210578063d547741f14610223578063ff091fda1461023657600080fd5b80638b78f4a4146101a35780639010d07c146101ca57806391d14854146101f557600080fd5b806301ffc9a7146100d457806307e2cea5146100fc578063248a9ca3146101315780632f2ff15d1461015457806336568abe14610169578063662580681461017c575b600080fd5b6100e76100e23660046109e5565b61025d565b60405190151581526020015b60405180910390f35b6101237f352d05fe3946dbe49277552ba941e744d5a96d9c60bc1ba0ea5f1d3ae000f7c881565b6040519081526020016100f3565b61012361013f366004610a0f565b60009081526020819052604090206001015490565b610167610162366004610a28565b610288565b005b610167610177366004610a28565b61039b565b6101237ff5ce428e7b77c2e5eb4c61db0977f604e3aa30d6faafc4754b4b2e024a42efe781565b6101237fc7b831d99cd5e059fa682a05c265332c78b15cedd3a8c05388d47c623bd50f4181565b6101dd6101d8366004610a64565b610415565b6040516001600160a01b0390911681526020016100f3565b6100e7610203366004610a28565b610434565b610123600081565b61012361021e366004610a0f565b61045d565b610167610231366004610a28565b610474565b6101237fd467a5e095ce9c4c4990c87ea364419e874fc48520db2db46312f0e95ebbd14b81565b60006001600160e01b03198216635a05180f60e01b148061028257506102828261049e565b92915050565b7fd467a5e095ce9c4c4990c87ea364419e874fc48520db2db46312f0e95ebbd14b82141580156102d857507fc7b831d99cd5e059fa682a05c265332c78b15cedd3a8c05388d47c623bd50f418214155b801561030457507f352d05fe3946dbe49277552ba941e744d5a96d9c60bc1ba0ea5f1d3ae000f7c88214155b801561033057507ff5ce428e7b77c2e5eb4c61db0977f604e3aa30d6faafc4754b4b2e024a42efe78214155b801561033b57508115155b1561038d5760405162461bcd60e51b815260206004820152601960248201527f55736520707265646566696e656420726f6c6573206f6e6c790000000000000060448201526064015b60405180910390fd5b61039782826104d3565b5050565b6001600160a01b038116331461040b5760405162461bcd60e51b815260206004820152602f60248201527f416363657373436f6e74726f6c3a2063616e206f6e6c792072656e6f756e636560448201526e103937b632b9903337b91039b2b63360891b6064820152608401610384565b61039782826104f8565b600082815260016020526040812061042d908361051a565b9392505050565b6000918252602082815260408084206001600160a01b0393909316845291905290205460ff1690565b600081815260016020526040812061028290610526565b60008281526020819052604090206001015461048f81610530565b61049983836104f8565b505050565b60006001600160e01b03198216637965db0b60e01b148061028257506301ffc9a760e01b6001600160e01b0319831614610282565b6000828152602081905260409020600101546104ee81610530565b610499838361053d565b610502828261055f565b600082815260016020526040902061049990826105c4565b600061042d83836105d9565b6000610282825490565b61053a8133610603565b50565b610547828261065c565b600082815260016020526040902061049990826106e0565b6105698282610434565b15610397576000828152602081815260408083206001600160a01b0385168085529252808320805460ff1916905551339285917ff6391f5c32d9c69d2a47ea670b442974b53935d1edc7fd64eb21e047a839171b9190a45050565b600061042d836001600160a01b0384166106f5565b60008260000182815481106105f0576105f0610a86565b9060005260206000200154905092915050565b61060d8282610434565b6103975761061a816107e8565b6106258360206107fa565b604051602001610636929190610ac0565b60408051601f198184030181529082905262461bcd60e51b825261038491600401610b35565b6106668282610434565b610397576000828152602081815260408083206001600160a01b03851684529091529020805460ff1916600117905561069c3390565b6001600160a01b0316816001600160a01b0316837f2f8788117e7eff1d82e926ec794901d17c78024a50270940304540a733656f0d60405160405180910390a45050565b600061042d836001600160a01b038416610996565b600081815260018301602052604081205480156107de576000610719600183610b7e565b855490915060009061072d90600190610b7e565b905081811461079257600086600001828154811061074d5761074d610a86565b906000526020600020015490508087600001848154811061077057610770610a86565b6000918252602080832090910192909255918252600188019052604090208390555b85548690806107a3576107a3610b91565b600190038181906000526020600020016000905590558560010160008681526020019081526020016000206000905560019350505050610282565b6000915050610282565b60606102826001600160a01b03831660145b60606000610809836002610ba7565b610814906002610bbe565b67ffffffffffffffff81111561082c5761082c610bd1565b6040519080825280601f01601f191660200182016040528015610856576020820181803683370190505b509050600360fc1b8160008151811061087157610871610a86565b60200101906001600160f81b031916908160001a905350600f60fb1b816001815181106108a0576108a0610a86565b60200101906001600160f81b031916908160001a90535060006108c4846002610ba7565b6108cf906001610bbe565b90505b6001811115610947576f181899199a1a9b1b9c1cb0b131b232b360811b85600f166010811061090357610903610a86565b1a60f81b82828151811061091957610919610a86565b60200101906001600160f81b031916908160001a90535060049490941c9361094081610be7565b90506108d2565b50831561042d5760405162461bcd60e51b815260206004820181905260248201527f537472696e67733a20686578206c656e67746820696e73756666696369656e746044820152606401610384565b60008181526001830160205260408120546109dd57508154600181810184556000848152602080822090930184905584548482528286019093526040902091909155610282565b506000610282565b6000602082840312156109f757600080fd5b81356001600160e01b03198116811461042d57600080fd5b600060208284031215610a2157600080fd5b5035919050565b60008060408385031215610a3b57600080fd5b8235915060208301356001600160a01b0381168114610a5957600080fd5b809150509250929050565b60008060408385031215610a7757600080fd5b50508035926020909101359150565b634e487b7160e01b600052603260045260246000fd5b60005b83811015610ab7578181015183820152602001610a9f565b50506000910152565b7f416363657373436f6e74726f6c3a206163636f756e7420000000000000000000815260008351610af8816017850160208801610a9c565b7001034b99036b4b9b9b4b733903937b6329607d1b6017918401918201528351610b29816028840160208801610a9c565b01602801949350505050565b6020815260008251806020840152610b54816040850160208701610a9c565b601f01601f19169190910160400192915050565b634e487b7160e01b600052601160045260246000fd5b8181038181111561028257610282610b68565b634e487b7160e01b600052603160045260246000fd5b808202811582820484141761028257610282610b68565b8082018082111561028257610282610b68565b634e487b7160e01b600052604160045260246000fd5b600081610bf657610bf6610b68565b50600019019056fea26469706673582212206ce3278447da90d31fa3d074dab572cf83a8fc3be07bf88cc612243f7a861d0f64736f6c63430008130033f5ce428e7b77c2e5eb4c61db0977f604e3aa30d6faafc4754b4b2e024a42efe7",
  "linkReferences": {},
  "deployedLinkReferences": {}
}