{
  "_format": "hh-sol-artifact-1",
  "contractName": "DeviceRegistry",
  "sourceName": "contracts/DeviceRegistry.sol",
  "abi": [
    {
      "inputs": [
        {
          "internalType": "address",
          "name": "_accessManager",
          "type": "address"
        }
      ],
      "stateMutability": "nonpayable",
      "type": "constructor"
    },
    {
      "inputs": [],
      "name": "ArrayLengthMismatch",
      "type": "error"
    },
    {
      "inputs": [],
      "name": "DeviceExists",
      "type": "error"
    },
    {
      "inputs": [],
      "name": "DeviceNotFound",
      "type": "error"
    },
    {
      "inputs": [],
      "name": "InvalidDeviceType",
      "type": "error"
    },
    {
      "inputs": [],
      "name": "InvalidShortString",
      "type": "error"
    },
    {
      "inputs": [],
      "name": "InvalidSignature",
      "type": "error"
    },
    {
      "inputs": [],
      "name": "NotAdmin",
      "type": "error"
    },
    {
      "inputs": [],
      "name": "NotDeviceManager",
      "type": "error"
    },
    {
      "inputs": [
        {
          "internalType": "string",
          "name": "str",
          "type": "string"
        }
      ],
      "name": "StringTooLong",
      "type": "error"
    },
    {
      "inputs": [],
      "name": "Unauthorized",
      "type": "error"
    },
    {
      "anonymous": false,
      "inputs": [
        {
          "indexed": true,
          "internalType": "bytes32",
          "name": "deviceHash",
          "type": "bytes32"
        },
        {
          "indexed": true,
          "internalType": "address",
          "name": "previousOwner",
          "type": "address"
        },
        {
          "indexed": true,
          "internalType": "address",
          "name": "newOwner",
          "type": "address"
        },
        {
          "indexed": false,
          "internalType": "uint256",
          "name": "timestamp",
          "type": "uint256"
        }
      ],
      "name": "DeviceOwnershipTransferred",
      "type": "event"
    },
    {
      "anonymous": false,
      "inputs": [
        {
          "indexed": true,
          "internalType": "bytes32",
          "name": "deviceHash",
          "type": "bytes32"
        },
        {
          "indexed": true,
          "internalType": "address",
          "name": "owner",
          "type": "address"
        },
        {
          "indexed": false,
          "internalType": "string",
          "name": "deviceType",
          "type": "string"
        },
        {
          "indexed": false,
          "internalType": "uint256",
          "name": "timestamp",
          "type": "uint256"
        }
      ],
      "name": "DeviceRegistered",
      "type": "event"
    },
    {
      "anonymous": false,
      "inputs": [
        {
          "indexed": true,
          "internalType": "bytes32",
          "name": "deviceHash",
          "type": "bytes32"
        },
        {
          "indexed": false,
          "internalType": "uint256",
          "name": "timestamp",
          "type": "uint256"
        }
      ],
      "name": "DeviceRetired",
      "type": "event"
    },
    {
      "anonymous": false,
      "inputs": [
        {
          "indexed": true,
          "internalType": "bytes32",
          "name": "deviceHash",
          "type": "bytes32"
        },
        {
          "indexed": false,
          "internalType": "enum DeviceRegistry.DeviceStatus",
          "name": "newStatus",
          "type": "uint8"
        },
        {
          "indexed": true,
          "internalType": "address",
          "name": "updatedBy",
          "type": "address"
        },
        {
          "indexed": false,
          "internalType": "uint256",
          "name": "timestamp",
          "type": "uint256"
        }
      ],
      "name": "DeviceStatusUpdated",
      "type": "event"
    },
    {
      "anonymous": false,
      "inputs": [],
      "name": "EIP712DomainChanged",
      "type": "event"
    },
    {
      "anonymous": false,
      "inputs": [
        {
          "indexed": false,
          "internalType": "address",
          "name": "account",
          "type": "address"
        }
      ],
      "name": "Paused",
      "type": "event"
    },
    {
      "anonymous": false,
      "inputs": [
        {
          "indexed": true,
          "internalType": "bytes32",
          "name": "role",
          "type": "bytes32"
        },
        {
          "indexed": true,
          "internalType": "bytes32",
          "name": "previousAdminRole",
          "type": "bytes32"
        },
        {
          "indexed": true,
          "internalType": "bytes32",
          "name": "newAdminRole",
          "type": "bytes32"
        }
      ],
      "name": "RoleAdminChanged",
      "type": "event"
    },
    {
      "anonymous": false,
      "inputs": [
        {
          "indexed": true,
          "internalType": "bytes32",
          "name": "role",
          "type": "bytes32"
        },
        {
          "indexed": true,
          "internalType": "address",
          "name": "account",
          "type": "address"
        },
        {
          "indexed": true,
          "internalType": "address",
          "name": "sender",
          "type": "address"
        }
      ],
      "name": "RoleGranted",
      "type": "event"
    },
    {
      "anonymous": false,
      "inputs": [
        {
          "indexed": true,
          "internalType": "bytes32",
          "name": "role",
          "type": "bytes32"
        },
        {
          "indexed": true,
          "internalType": "address",
          "name": "account",
          "type": "address"
        },
        {
          "indexed": true,
          "internalType": "address",
          "name": "sender",
          "type": "address"
        }
      ],
      "name": "RoleRevoked",
      "type": "event"
    },
    {
      "anonymous": false,
      "inputs": [
        {
          "indexed": false,
          "internalType": "address",
          "name": "account",
          "type": "address"
        }
      ],
      "name": "Unpaused",
      "type": "event"
    },
    {
      "inputs": [],
      "name": "ADMIN_ROLE",
      "outputs": [
        {
          "internalType": "bytes32",
          "name": "",
          "type": "bytes32"
        }
      ],
      "stateMutability": "view",
      "type": "function"
    },
    {
      "inputs": [],
      "name": "DEFAULT_ADMIN_ROLE",
      "outputs": [
        {
          "internalType": "bytes32",
          "name": "",
          "type": "bytes32"
        }
      ],
      "stateMutability": "view",
      "type": "function"
    },
    {
      "inputs": [],
      "name": "DEVICE_MANAGER_ROLE",
      "outputs": [
        {
          "internalType": "bytes32",
          "name": "",
          "type": "bytes32"
        }
      ],
      "stateMutability": "view",
      "type": "function"
    },
    {
      "inputs": [],
      "name": "accessManager",
      "outputs": [
        {
          "internalType": "contract AccessManager",
          "name": "",
          "type": "address"
        }
      ],
      "stateMutability": "view",
      "type": "function"
    },
    {
      "inputs": [
        {
          "internalType": "bytes32[]",
          "name": "deviceHashes",
          "type": "bytes32[]"
        },
        {
          "internalType": "enum DeviceRegistry.DeviceStatus[]",
          "name": "newStatuses",
          "type": "uint8[]"
        }
      ],
      "name": "batchUpdateStatus",
      "outputs": [],
      "stateMutability": "nonpayable",
      "type": "function"
    },
    {
      "inputs": [],
      "name": "eip712Domain",
      "outputs": [
        {
          "internalType": "bytes1",
          "name": "fields",
          "type": "bytes1"
        },
        {
          "internalType": "string",
          "name": "name",
          "type": "string"
        },
        {
          "internalType": "string",
          "name": "version",
          "type": "string"
        },
        {
          "internalType": "uint256",
          "name": "chainId",
          "type": "uint256"
        },
        {
          "internalType": "address",
          "name": "verifyingContract",
          "type": "address"
        },
        {
          "internalType": "bytes32",
          "name": "salt",
          "type": "bytes32"
        },
        {
          "internalType": "uint256[]",
          "name": "extensions",
          "type": "uint256[]"
        }
      ],
      "stateMutability": "view",
      "type": "function"
    },
    {
      "inputs": [
        {
          "internalType": "address",
          "name": "owner",
          "type": "address"
        },
        {
          "internalType": "uint256",
          "name": "page",
          "type": "uint256"
        },
        {
          "internalType": "uint256",
          "name": "pageSize",
          "type": "uint256"
        }
      ],
      "name": "getDevicesByOwnerPaginated",
      "outputs": [
        {
          "components": [
            {
              "internalType": "bytes32",
              "name": "deviceHash",
              "type": "bytes32"
            },
            {
              "internalType": "address",
              "name": "owner",
              "type": "address"
            },
            {
              "internalType": "enum DeviceRegistry.DeviceStatus",
              "name": "status",
              "type": "uint8"
            },
            {
              "internalType": "uint256",
              "name": "registrationDate",
              "type": "uint256"
            },
            {
              "internalType": "uint256",
              "name": "lastUpdated",
              "type": "uint256"
            },
            {
              "internalType": "string",
              "name": "deviceType",
              "type": "string"
            },
            {
              "internalType": "string",
              "name": "manufacturer",
              "type": "string"
            },
            {
              "internalType": "string",
              "name": "model",
              "type": "string"
            },
            {
              "internalType": "string",
              "name": "location",
              "type": "string"
            }
          ],
          "internalType": "struct DeviceRegistry.DeviceView[]",
          "name": "",
          "type": "tuple[]"
        }
      ],
      "stateMutability": "view",
      "type": "function"
    },
    {
      "inputs": [
        {
          "internalType": "bytes32",
          "name": "role",
          "type": "bytes32"
        }
      ],
      "name": "getRoleAdmin",
      "outputs": [
        {
          "internalType": "bytes32",
          "name": "",
          "type": "bytes32"
        }
      ],
      "stateMutability": "view",
      "type": "function"
    },
    {
      "inputs": [
        {
          "internalType": "bytes32",
          "name": "role",
          "type": "bytes32"
        },
        {
          "internalType": "address",
          "name": "account",
          "type": "address"
        }
      ],
      "name": "grantRole",
      "outputs": [],
      "stateMutability": "nonpayable",
      "type": "function"
    },
    {
      "inputs": [
        {
          "internalType": "bytes32",
          "name": "role",
          "type": "bytes32"
        },
        {
          "internalType": "address",
          "name": "account",
          "type": "address"
        }
      ],
      "name": "hasRole",
      "outputs": [
        {
          "internalType": "bool",
          "name": "",
          "type": "bool"
        }
      ],
      "stateMutability": "view",
      "type": "function"
    },
    {
      "inputs": [],
      "name": "pause",
      "outputs": [],
      "stateMutability": "nonpayable",
      "type": "function"
    },
    {
      "inputs": [],
      "name": "paused",
      "outputs": [
        {
          "internalType": "bool",
          "name": "",
          "type": "bool"
        }
      ],
      "stateMutability": "view",
      "type": "function"
    },
    {
      "inputs": [
        {
          "internalType": "bytes32",
          "name": "deviceHash",
          "type": "bytes32"
        },
        {
          "internalType": "string",
          "name": "deviceType",
          "type": "string"
        },
        {
          "internalType": "string",
          "name": "manufacturer",
          "type": "string"
        },
        {
          "internalType": "string",
          "name": "model",
          "type": "string"
        },
        {
          "internalType": "string",
          "name": "location",
          "type": "string"
        },
        {
          "internalType": "bytes",
          "name": "signature",
          "type": "bytes"
        }
      ],
      "name": "registerDevice",
      "outputs": [],
      "stateMutability": "nonpayable",
      "type": "function"
    },
    {
      "inputs": [
        {
          "internalType": "bytes32",
          "name": "role",
          "type": "bytes32"
        },
        {
          "internalType": "address",
          "name": "account",
          "type": "address"
        }
      ],
      "name": "renounceRole",
      "outputs": [],
      "stateMutability": "nonpayable",
      "type": "function"
    },
    {
      "inputs": [
        {
          "internalType": "bytes32",
          "name": "deviceHash",
          "type": "bytes32"
        }
      ],
      "name": "retireDevice",
      "outputs": [],
      "stateMutability": "nonpayable",
      "type": "function"
    },
    {
      "inputs": [
        {
          "internalType": "bytes32",
          "name": "role",
          "type": "bytes32"
        },
        {
          "internalType": "address",
          "name": "account",
          "type": "address"
        }
      ],
      "name": "revokeRole",
      "outputs": [],
      "stateMutability": "nonpayable",
      "type": "function"
    },
    {
      "inputs": [
        {
          "internalType": "bytes4",
          "name": "interfaceId",
          "type": "bytes4"
        }
      ],
      "name": "supportsInterface",
      "outputs": [
        {
          "internalType": "bool",
          "name": "",
          "type": "bool"
        }
      ],
      "stateMutability": "view",
      "type": "function"
    },
    {
      "inputs": [
        {
          "internalType": "bytes32",
          "name": "deviceHash",
          "type": "bytes32"
        },
        {
          "internalType": "address",
          "name": "newOwner",
          "type": "address"
        }
      ],
      "name": "transferOwnership",
      "outputs": [],
      "stateMutability": "nonpayable",
      "type": "function"
    },
    {
      "inputs": [],
      "name": "unpause",
      "outputs": [],
      "stateMutability": "nonpayable",
      "type": "function"
    },
    {
      "inputs": [
        {
          "internalType": "bytes32",
          "name": "deviceHash",
          "type": "bytes32"
        },
        {
          "internalType": "enum DeviceRegistry.DeviceStatus",
          "name": "newStatus",
          "type": "uint8"
        }
      ],
      "name": "updateDeviceStatus",
      "outputs": [],
      "stateMutability": "nonpayable",
      "type": "function"
    }
  ],
  "bytecode": "0x6101806040523480156200001257600080fd5b506040516200308838038062003088833981016040819052620000359162000326565b604080518082018252600e81526d446576696365526567697374727960901b60208083019190915282518084019093526003808452620312e360ec1b918401919091526001805460ff1916815560025590919062000095908390620001b5565b61012052620000a6816004620001b5565b61014052815160208084019190912060e052815190820120610100524660a0526200013460e05161010051604080517f8b73c3c69bb8fe3d512ecc4cf759cc79239f7b179b0ffacaa9a75d522b39400f60208201529081019290925260608201524660808201523060a082015260009060c00160405160208183030381529060405280519060200120905090565b60805250503060c0526001600160a01b0381166101605262000158600033620001ee565b620001736000805160206200306883398151915233620001ee565b620001ae7fd467a5e095ce9c4c4990c87ea364419e874fc48520db2db46312f0e95ebbd14b600080516020620030688339815191526200028f565b506200053e565b6000602083511015620001d557620001cd83620002da565b9050620001e8565b81620001e28482620003fd565b5060ff90505b92915050565b6000828152602081815260408083206001600160a01b038516845290915290205460ff166200028b576000828152602081815260408083206001600160a01b03851684529091529020805460ff191660011790556200024a3390565b6001600160a01b0316816001600160a01b0316837f2f8788117e7eff1d82e926ec794901d17c78024a50270940304540a733656f0d60405160405180910390a45b5050565b600082815260208190526040808220600101805490849055905190918391839186917fbd79b86ffe0ab8e8776151514217cd7cacd52c909f66475c3af44e129f0b00ff9190a4505050565b600080829050601f8151111562000311578260405163305a27a960e01b8152600401620003089190620004c9565b60405180910390fd5b80516200031e8262000519565b179392505050565b6000602082840312156200033957600080fd5b81516001600160a01b03811681146200035157600080fd5b9392505050565b634e487b7160e01b600052604160045260246000fd5b600181811c908216806200038357607f821691505b602082108103620003a457634e487b7160e01b600052602260045260246000fd5b50919050565b601f821115620003f857600081815260208120601f850160051c81016020861015620003d35750805b601f850160051c820191505b81811015620003f457828155600101620003df565b5050505b505050565b81516001600160401b0381111562000419576200041962000358565b62000431816200042a84546200036e565b84620003aa565b602080601f831160018114620004695760008415620004505750858301515b600019600386901b1c1916600185901b178555620003f4565b600085815260208120601f198616915b828110156200049a5788860151825594840194600190910190840162000479565b5085821015620004b95787850151600019600388901b60f8161c191681555b5050505050600190811b01905550565b600060208083528351808285015260005b81811015620004f857858101830151858201604001528201620004da565b506000604082860101526040601f19601f8301168501019250505092915050565b80516020808301519190811015620003a45760001960209190910360031b1b16919050565b60805160a05160c05160e05161010051610120516101405161016051612a8c620005dc600039600081816102c1015281816104080152818161043701528181610592015281816105c101528181610b9e01528181610bcd01528181610daa0152610dd901526000610705015260006106da01526000611f3601526000611f0e01526000611e6901526000611e9301526000611ebd0152612a8c6000f3fe608060405234801561001057600080fd5b506004361061012c5760003560e01c806391d14854116100ad578063d547741f11610071578063d547741f14610283578063ef5d6bbb14610296578063f76baccf146102a9578063fdcb6068146102bc578063ff091fda146102fb57600080fd5b806391d1485414610222578063a217fddf14610235578063a507cf3e1461023d578063adc6a76b1461025d578063d015dda11461027057600080fd5b80635c975abb116100f45780635c975abb146101ba5780635f8933fc146101c557806375b238fc146101d85780638456cb59146101ff57806384b0196e1461020757600080fd5b806301ffc9a714610131578063248a9ca3146101595780632f2ff15d1461018a57806336568abe1461019f5780633f4ba83a146101b2575b600080fd5b61014461013f366004612207565b610322565b60405190151581526020015b60405180910390f35b61017c610167366004612231565b60009081526020819052604090206001015490565b604051908152602001610150565b61019d610198366004612266565b610359565b005b61019d6101ad366004612266565b610383565b61019d610406565b60015460ff16610144565b61019d6101d33660046122d4565b610544565b61017c7fa49807205ce4d355092ef5a8a18f56e8913cf4a201fbe287825b095693c2177581565b61019d610590565b61020f6106cc565b6040516101509796959493929190612424565b610144610230366004612266565b610755565b61017c600081565b61025061024b3660046124ba565b61077e565b6040516101509190612525565b61019d61026b36600461263b565b610b9c565b61019d61027e3660046126a3565b610da8565b61019d610291366004612266565b61106a565b61019d6102a4366004612266565b61108f565b61019d6102b7366004612231565b611278565b6102e37f000000000000000000000000000000000000000000000000000000000000000081565b6040516001600160a01b039091168152602001610150565b61017c7fd467a5e095ce9c4c4990c87ea364419e874fc48520db2db46312f0e95ebbd14b81565b60006001600160e01b03198216637965db0b60e01b148061035357506301ffc9a760e01b6001600160e01b03198316145b92915050565b60008281526020819052604090206001015461037481611371565b61037e838361137e565b505050565b6001600160a01b03811633146103f85760405162461bcd60e51b815260206004820152602f60248201527f416363657373436f6e74726f6c3a2063616e206f6e6c792072656e6f756e636560448201526e103937b632b9903337b91039b2b63360891b60648201526084015b60405180910390fd5b6104028282611402565b5050565b7f00000000000000000000000000000000000000000000000000000000000000006001600160a01b03166391d148547f00000000000000000000000000000000000000000000000000000000000000006001600160a01b031663662580686040518163ffffffff1660e01b8152600401602060405180830381865afa158015610493573d6000803e3d6000fd5b505050506040513d601f19601f820116820180604052508101906104b7919061270f565b6040516001600160e01b031960e084901b1681526004810191909152336024820152604401602060405180830381865afa1580156104f9573d6000803e3d6000fd5b505050506040513d601f19601f8201168201806040525081019061051d9190612728565b61053a57604051637bfa4b9f60e01b815260040160405180910390fd5b610542611467565b565b61054c6114b9565b6105546114ff565b6105678b8b8b8b8b8b8b8b8b8b8b611556565b6105798b8b8b8b8b8b8b8b8b33611795565b6105836001600255565b5050505050505050505050565b7f00000000000000000000000000000000000000000000000000000000000000006001600160a01b03166391d148547f00000000000000000000000000000000000000000000000000000000000000006001600160a01b031663662580686040518163ffffffff1660e01b8152600401602060405180830381865afa15801561061d573d6000803e3d6000fd5b505050506040513d601f19601f82011682018060405250810190610641919061270f565b6040516001600160e01b031960e084901b1681526004810191909152336024820152604401602060405180830381865afa158015610683573d6000803e3d6000fd5b505050506040513d601f19601f820116820180604052508101906106a79190612728565b6106c457604051637bfa4b9f60e01b815260040160405180910390fd5b610542611a8f565b6000606080828080836107007f00000000000000000000000000000000000000000000000000000000000000006003611aca565b61072b7f00000000000000000000000000000000000000000000000000000000000000006004611aca565b60408051600080825260208201909252600f60f81b9b939a50919850469750309650945092509050565b6000918252602082815260408084206001600160a01b0393909316845291905290205460ff1690565b6001600160a01b03831660009081526006602052604081206060916107a38486612776565b905060006107b1858361278d565b835490915081116107c257806107c5565b82545b905060006107d383836127a0565b67ffffffffffffffff8111156107eb576107eb61274a565b60405190808252806020026020018201604052801561086b57816020015b6108586040805161012081018252600080825260208201819052909182019081526020016000815260200160008152602001606081526020016060815260200160608152602001606081525090565b8152602001906001900390816108095790505b509050825b82811015610b9057600085828154811061088c5761088c6127b3565b60009182526020808320909101548083526005825260409283902083516101208101855282815281546001600160a01b038116948201949094529194509290919082019060ff600160a01b9091041660038111156108ec576108ec6124ed565b8152825464ffffffffff600160a81b820481166020840152600160d01b909104166040820152600183018054606090920191610927906127c9565b80601f0160208091040260200160405190810160405280929190818152602001828054610953906127c9565b80156109a05780601f10610975576101008083540402835291602001916109a0565b820191906000526020600020905b81548152906001019060200180831161098357829003601f168201915b505050505081526020018260020180546109b9906127c9565b80601f01602080910402602001604051908101604052809291908181526020018280546109e5906127c9565b8015610a325780601f10610a0757610100808354040283529160200191610a32565b820191906000526020600020905b815481529060010190602001808311610a1557829003601f168201915b50505050508152602001826003018054610a4b906127c9565b80601f0160208091040260200160405190810160405280929190818152602001828054610a77906127c9565b8015610ac45780601f10610a9957610100808354040283529160200191610ac4565b820191906000526020600020905b815481529060010190602001808311610aa757829003601f168201915b50505050508152602001826004018054610add906127c9565b80601f0160208091040260200160405190810160405280929190818152602001828054610b09906127c9565b8015610b565780601f10610b2b57610100808354040283529160200191610b56565b820191906000526020600020905b815481529060010190602001808311610b3957829003601f168201915b5050505050815250848785610b6b91906127a0565b81518110610b7b57610b7b6127b3565b60209081029190910101525050600101610870565b50979650505050505050565b7f00000000000000000000000000000000000000000000000000000000000000006001600160a01b03166391d148547f00000000000000000000000000000000000000000000000000000000000000006001600160a01b031663ff091fda6040518163ffffffff1660e01b8152600401602060405180830381865afa158015610c29573d6000803e3d6000fd5b505050506040513d601f19601f82011682018060405250810190610c4d919061270f565b6040516001600160e01b031960e084901b1681526004810191909152336024820152604401602060405180830381865afa158015610c8f573d6000803e3d6000fd5b505050506040513d601f19601f82011682018060405250810190610cb39190612728565b610cd0576040516358c0537b60e11b815260040160405180910390fd5b610cd86114b9565b600082815260056020526040812080549091600160a81b90910464ffffffffff169003610d1857604051636ee5783b60e11b815260040160405180910390fd5b80548290829060ff60a01b1916600160a01b836003811115610d3c57610d3c6124ed565b0217905550805464ffffffffff42908116600160d01b0264ffffffffff60d01b19909216919091178255604051339185917f61a26859f6c93197c83a8ee434709bfb4911c7ba4f7daed82ba6e5fe2762da1a91610d9b91879190612803565b60405180910390a3505050565b7f00000000000000000000000000000000000000000000000000000000000000006001600160a01b03166391d148547f00000000000000000000000000000000000000000000000000000000000000006001600160a01b031663ff091fda6040518163ffffffff1660e01b8152600401602060405180830381865afa158015610e35573d6000803e3d6000fd5b505050506040513d601f19601f82011682018060405250810190610e59919061270f565b6040516001600160e01b031960e084901b1681526004810191909152336024820152604401602060405180830381865afa158015610e9b573d6000803e3d6000fd5b505050506040513d601f19601f82011682018060405250810190610ebf9190612728565b610edc576040516358c0537b60e11b815260040160405180910390fd5b82818114610efd5760405163512509d360e11b815260040160405180910390fd5b60005b8181101561106257600060056000888885818110610f2057610f206127b3565b90506020020135815260200190815260200160002090508060000160159054906101000a900464ffffffffff1664ffffffffff16600003610f7457604051636ee5783b60e11b815260040160405180910390fd5b848483818110610f8657610f866127b3565b9050602002016020810190610f9b919061281e565b8154829060ff60a01b1916600160a01b836003811115610fbd57610fbd6124ed565b0217905550805464ffffffffff60d01b1916600160d01b4264ffffffffff160217815533878784818110610ff357610ff36127b3565b905060200201357f61a26859f6c93197c83a8ee434709bfb4911c7ba4f7daed82ba6e5fe2762da1a87878681811061102d5761102d6127b3565b9050602002016020810190611042919061281e565b42604051611051929190612803565b60405180910390a350600101610f00565b505050505050565b60008281526020819052604090206001015461108581611371565b61037e8383611402565b60008281526007602052604090205482906001600160a01b031633146110c7576040516282b42960e81b815260040160405180910390fd5b6110cf6114b9565b6110d76114ff565b600083815260076020908152604080832080546001600160a01b031981166001600160a01b038881169182179093556005855283862080547fff0000000000ffffffffffff000000000000000000000000000000000000000016909117600160d01b4264ffffffffff1602179055168084526006909252822090915b81548110156111fd578582828154811061116f5761116f6127b3565b9060005260206000200154036111f5578154829061118f906001906127a0565b8154811061119f5761119f6127b3565b90600052602060002001548282815481106111bc576111bc6127b3565b9060005260206000200181905550818054806111da576111da612839565b600190038181906000526020600020016000905590556111fd565b600101611153565b506001600160a01b0380851660008181526006602090815260408083208054600181018255908452919092200188905551909184169087907fb96aec8f2760a218c2f2a7199a43aa8633afe5b27e537bf82df9e72a66ff7755906112649042815260200190565b60405180910390a4505061037e6001600255565b60008181526007602052604090205481906001600160a01b031633146112b0576040516282b42960e81b815260040160405180910390fd5b6112b86114b9565b6112c06114ff565b600082815260056020526040812080549091600160a81b90910464ffffffffff16900361130057604051636ee5783b60e11b815260040160405180910390fd5b805464ffffffffff42908116600160d01b026affffffffff0000000000ff60a01b1990921691909117600360a01b17825560405190815283907fe4e9e0e6b9889fff20f193c3ccafd6ba5c39f42a703316940d3540ebc52c4f609060200160405180910390a2506104026001600255565b61137b8133611b75565b50565b6113888282610755565b610402576000828152602081815260408083206001600160a01b03851684529091529020805460ff191660011790556113be3390565b6001600160a01b0316816001600160a01b0316837f2f8788117e7eff1d82e926ec794901d17c78024a50270940304540a733656f0d60405160405180910390a45050565b61140c8282610755565b15610402576000828152602081815260408083206001600160a01b0385168085529252808320805460ff1916905551339285917ff6391f5c32d9c69d2a47ea670b442974b53935d1edc7fd64eb21e047a839171b9190a45050565b61146f611bce565b6001805460ff191690557f5db9ee0a495bf2e6ff9c91a7834c1ba4fdd244a5e8aa4e537bd38aeae4b073aa335b6040516001600160a01b03909116815260200160405180910390a1565b60015460ff16156105425760405162461bcd60e51b815260206004820152601060248201526f14185d5cd8589b194e881c185d5cd95960821b60448201526064016103ef565b60028054036115505760405162461bcd60e51b815260206004820152601f60248201527f5265656e7472616e637947756172643a207265656e7472616e742063616c6c0060448201526064016103ef565b60028055565b8815806115635750604089115b1561158157604051631013156760e21b815260040160405180910390fd5b60408711156115a357604051631013156760e21b815260040160405180910390fd5b60408511156115c557604051631013156760e21b815260040160405180910390fd5b60408311156115e757604051631013156760e21b815260040160405180910390fd5b60008b815260056020526040902054600160a81b900464ffffffffff1615611622576040516344076d2f60e01b815260040160405180910390fd5b80156105835760006116f77f7cf0307ce54a99af0ecc8404edeb2188a3cf49ef0984de712e2b2912d053bfd08d8d8d60405161165f92919061284f565b60405180910390208c8c60405161167792919061284f565b60405180910390208b8b60405161168f92919061284f565b60405180910390208a8a6040516116a792919061284f565b6040805191829003822060208301979097528101949094526060840192909252608083015260a082015260c081019190915260e00160405160208183030381529060405280519060200120611c17565b9050600061173d84848080601f0160208091040260200160405190810160405280939291908181526020018383808284376000920191909152508693925050611c449050565b90506117697fd467a5e095ce9c4c4990c87ea364419e874fc48520db2db46312f0e95ebbd14b82610755565b61178657604051638baa579f60e01b815260040160405180910390fd5b50505050505050505050505050565b6040805161010081019091526001600160a01b038216815260009060208101600181526020014264ffffffffff1681526020014264ffffffffff1681526020018b8b8080601f016020809104026020016040519081016040528093929190818152602001838380828437600092019190915250505090825250604080516020601f8c018190048102820181019092528a815291810191908b908b9081908401838280828437600092019190915250505090825250604080516020601f8a0181900481028201810190925288815291810191908990899081908401838280828437600092019190915250505090825250604080516020601f88018190048102820181019092528681529181019190879087908190840183828082843760009201829052509390945250508d8152600560209081526040909120835181546001600160a01b039091166001600160a01b0319821681178355928501519495508594919350909183916001600160a81b03191617600160a01b83600381111561191d5761191d6124ed565b021790555060408201518154606084015164ffffffffff908116600160d01b0264ffffffffff60d01b1991909316600160a81b021669ffffffffffffffffffff60a81b19909116171781556080820151600182019061197c90826128a5565b5060a0820151600282019061199190826128a5565b5060c082015160038201906119a690826128a5565b5060e082015160048201906119bb90826128a5565b5050506001600160a01b03821660008181526006602090815260408083208054600181018255908452828420018f90558e835260079091529081902080546001600160a01b03191690921790915551600890611a1a908c908c9061284f565b9081526040519081900360200190208054906000611a3783612965565b9190505550816001600160a01b03168b7f3c127575a1a414a6c6a0e28ae10d8401f8b5322057b2dc4295d1e8fcf4d1074b8c8c42604051611a7a9392919061297e565b60405180910390a35050505050505050505050565b611a976114b9565b6001805460ff1916811790557f62e78cea01bee320cd4e420270b5ea74000d11b0c9f74754ebdbfc544b05a2583361149c565b606060ff8314611ae457611add83611c68565b9050610353565b818054611af0906127c9565b80601f0160208091040260200160405190810160405280929190818152602001828054611b1c906127c9565b8015611b695780601f10611b3e57610100808354040283529160200191611b69565b820191906000526020600020905b815481529060010190602001808311611b4c57829003601f168201915b50505050509050610353565b611b7f8282610755565b61040257611b8c81611ca7565b611b97836020611cb9565b604051602001611ba89291906129b7565b60408051601f198184030181529082905262461bcd60e51b82526103ef91600401612a2c565b60015460ff166105425760405162461bcd60e51b815260206004820152601460248201527314185d5cd8589b194e881b9bdd081c185d5cd95960621b60448201526064016103ef565b6000610353611c24611e5c565b8360405161190160f01b8152600281019290925260228201526042902090565b6000806000611c538585611f8c565b91509150611c6081611fd1565b509392505050565b60606000611c758361211b565b604080516020808252818301909252919250600091906020820181803683375050509182525060208101929092525090565b60606103536001600160a01b03831660145b60606000611cc8836002612776565b611cd390600261278d565b67ffffffffffffffff811115611ceb57611ceb61274a565b6040519080825280601f01601f191660200182016040528015611d15576020820181803683370190505b509050600360fc1b81600081518110611d3057611d306127b3565b60200101906001600160f81b031916908160001a905350600f60fb1b81600181518110611d5f57611d5f6127b3565b60200101906001600160f81b031916908160001a9053506000611d83846002612776565b611d8e90600161278d565b90505b6001811115611e06576f181899199a1a9b1b9c1cb0b131b232b360811b85600f1660108110611dc257611dc26127b3565b1a60f81b828281518110611dd857611dd86127b3565b60200101906001600160f81b031916908160001a90535060049490941c93611dff81612a3f565b9050611d91565b508315611e555760405162461bcd60e51b815260206004820181905260248201527f537472696e67733a20686578206c656e67746820696e73756666696369656e7460448201526064016103ef565b9392505050565b6000306001600160a01b037f000000000000000000000000000000000000000000000000000000000000000016148015611eb557507f000000000000000000000000000000000000000000000000000000000000000046145b15611edf57507f000000000000000000000000000000000000000000000000000000000000000090565b611f87604080517f8b73c3c69bb8fe3d512ecc4cf759cc79239f7b179b0ffacaa9a75d522b39400f60208201527f0000000000000000000000000000000000000000000000000000000000000000918101919091527f000000000000000000000000000000000000000000000000000000000000000060608201524660808201523060a082015260009060c00160405160208183030381529060405280519060200120905090565b905090565b6000808251604103611fc25760208301516040840151606085015160001a611fb687828585612143565b94509450505050611fca565b506000905060025b9250929050565b6000816004811115611fe557611fe56124ed565b03611fed5750565b6001816004811115612001576120016124ed565b0361204e5760405162461bcd60e51b815260206004820152601860248201527f45434453413a20696e76616c6964207369676e6174757265000000000000000060448201526064016103ef565b6002816004811115612062576120626124ed565b036120af5760405162461bcd60e51b815260206004820152601f60248201527f45434453413a20696e76616c6964207369676e6174757265206c656e6774680060448201526064016103ef565b60038160048111156120c3576120c36124ed565b0361137b5760405162461bcd60e51b815260206004820152602260248201527f45434453413a20696e76616c6964207369676e6174757265202773272076616c604482015261756560f01b60648201526084016103ef565b600060ff8216601f81111561035357604051632cd44ac360e21b815260040160405180910390fd5b6000807f7fffffffffffffffffffffffffffffff5d576e7357a4501ddfe92f46681b20a083111561217a57506000905060036121fe565b6040805160008082526020820180845289905260ff881692820192909252606081018690526080810185905260019060a0016020604051602081039080840390855afa1580156121ce573d6000803e3d6000fd5b5050604051601f1901519150506001600160a01b0381166121f7576000600192509250506121fe565b9150600090505b94509492505050565b60006020828403121561221957600080fd5b81356001600160e01b031981168114611e5557600080fd5b60006020828403121561224357600080fd5b5035919050565b80356001600160a01b038116811461226157600080fd5b919050565b6000806040838503121561227957600080fd5b823591506122896020840161224a565b90509250929050565b60008083601f8401126122a457600080fd5b50813567ffffffffffffffff8111156122bc57600080fd5b602083019150836020828501011115611fca57600080fd5b600080600080600080600080600080600060c08c8e0312156122f557600080fd5b8b359a5067ffffffffffffffff8060208e0135111561231357600080fd5b6123238e60208f01358f01612292565b909b50995060408d013581101561233957600080fd5b6123498e60408f01358f01612292565b909950975060608d013581101561235f57600080fd5b61236f8e60608f01358f01612292565b909750955060808d013581101561238557600080fd5b6123958e60808f01358f01612292565b909550935060a08d01358110156123ab57600080fd5b506123bc8d60a08e01358e01612292565b81935080925050509295989b509295989b9093969950565b60005b838110156123ef5781810151838201526020016123d7565b50506000910152565b600081518084526124108160208601602086016123d4565b601f01601f19169290920160200192915050565b60ff60f81b881681526000602060e08184015261244460e084018a6123f8565b8381036040850152612456818a6123f8565b606085018990526001600160a01b038816608086015260a0850187905284810360c0860152855180825283870192509083019060005b818110156124a85783518352928401929184019160010161248c565b50909c9b505050505050505050505050565b6000806000606084860312156124cf57600080fd5b6124d88461224a565b95602085013595506040909401359392505050565b634e487b7160e01b600052602160045260246000fd5b6004811061252157634e487b7160e01b600052602160045260246000fd5b9052565b60006020808301818452808551808352604092508286019150828160051b87010184880160005b8381101561261e57603f19898403018552815180518452878101516001600160a01b031688850152868101516101209061258889870182612503565b50606082810151908601526080808301519086015260a0808301518187018390526125b5838801826123f8565b9250505060c080830151868303828801526125d083826123f8565b9250505060e080830151868303828801526125eb83826123f8565b92505050610100808301519250858203818701525061260a81836123f8565b96890196945050509086019060010161254c565b509098975050505050505050565b80356004811061226157600080fd5b6000806040838503121561264e57600080fd5b823591506122896020840161262c565b60008083601f84011261267057600080fd5b50813567ffffffffffffffff81111561268857600080fd5b6020830191508360208260051b8501011115611fca57600080fd5b600080600080604085870312156126b957600080fd5b843567ffffffffffffffff808211156126d157600080fd5b6126dd8883890161265e565b909650945060208701359150808211156126f657600080fd5b506127038782880161265e565b95989497509550505050565b60006020828403121561272157600080fd5b5051919050565b60006020828403121561273a57600080fd5b81518015158114611e5557600080fd5b634e487b7160e01b600052604160045260246000fd5b634e487b7160e01b600052601160045260246000fd5b808202811582820484141761035357610353612760565b8082018082111561035357610353612760565b8181038181111561035357610353612760565b634e487b7160e01b600052603260045260246000fd5b600181811c908216806127dd57607f821691505b6020821081036127fd57634e487b7160e01b600052602260045260246000fd5b50919050565b604081016128118285612503565b8260208301529392505050565b60006020828403121561283057600080fd5b611e558261262c565b634e487b7160e01b600052603160045260246000fd5b8183823760009101908152919050565b601f82111561037e57600081815260208120601f850160051c810160208610156128865750805b601f850160051c820191505b8181101561106257828155600101612892565b815167ffffffffffffffff8111156128bf576128bf61274a565b6128d3816128cd84546127c9565b8461285f565b602080601f83116001811461290857600084156128f05750858301515b600019600386901b1c1916600185901b178555611062565b600085815260208120601f198616915b8281101561293757888601518255948401946001909101908401612918565b50858210156129555787850151600019600388901b60f8161c191681555b5050505050600190811b01905550565b60006001820161297757612977612760565b5060010190565b604081528260408201528284606083013760006060848301015260006060601f19601f8601168301019050826020830152949350505050565b7f416363657373436f6e74726f6c3a206163636f756e74200000000000000000008152600083516129ef8160178501602088016123d4565b7001034b99036b4b9b9b4b733903937b6329607d1b6017918401918201528351612a208160288401602088016123d4565b01602801949350505050565b602081526000611e5560208301846123f8565b600081612a4e57612a4e612760565b50600019019056fea2646970667358221220d10413f6738aaa9d350935d627395d973a7e7ae99df79e3658f5a21d55986ecd64736f6c63430008130033a49807205ce4d355092ef5a8a18f56e8913cf4a201fbe287825b095693c21775",
  "linkReferences": {},
  "deployedLinkReferences": {}
}