{
  "_format": "hh-sol-artifact-1",
  "contractName": "IoTDataLedger",
  "sourceName": "contracts/IoTDataLedger.sol",
  "abi": [
    {
      "inputs": [
        {
          "internalType": "address",
          "name": "_accessManager",
          "type": "address"
        },
        {
          "internalType": "address",
          "name": "_deviceRegistry",
          "type": "address"
        }
      ],
      "stateMutability": "nonpayable",
      "type": "constructor"
    },
    {
      "inputs": [],
      "name": "AlreadyValidated",
      "type": "error"
    },
    {
      "inputs": [],
      "name": "InvalidData",
      "type": "error"
    },
    {
      "inputs": [],
      "name": "InvalidDevice",
      "type": "error"
    },
    {
      "inputs": [],
      "name": "NotDataManager",
      "type": "error"
    },
    {
      "inputs": [],
      "name": "UnauthorizedAccess",
      "type": "error"
    },
    {
      "anonymous": false,
      "inputs": [
        {
          "indexed": true,
          "internalType": "bytes32",
          "name": "deviceHash",
          "type": "bytes32"
        },
        {
          "indexed": true,
          "internalType": "bytes32",
          "name": "dataType",
          "type": "bytes32"
        },
        {
          "indexed": false,
          "internalType": "bytes32",
          "name": "dataHash",
          "type": "bytes32"
        },
        {
          "indexed": false,
          "internalType": "uint40",
          "name": "timestamp",
          "type": "uint40"
        }
      ],
      "name": "DataRecorded",
      "type": "event"
    },
    {
      "anonymous": false,
      "inputs": [
        {
          "indexed": true,
          "internalType": "bytes32",
          "name": "deviceHash",
          "type": "bytes32"
        },
        {
          "indexed": false,
          "internalType": "uint40",
          "name": "timestamp",
          "type": "uint40"
        },
        {
          "indexed": false,
          "internalType": "address",
          "name": "validator",
          "type": "address"
        }
      ],
      "name": "DataValidated",
      "type": "event"
    },
    {
      "anonymous": false,
      "inputs": [
        {
          "indexed": false,
          "internalType": "address",
          "name": "account",
          "type": "address"
        }
      ],
      "name": "Paused",
      "type": "event"
    },
    {
      "anonymous": false,
      "inputs": [
        {
          "indexed": true,
          "internalType": "bytes32",
          "name": "role",
          "type": "bytes32"
        },
        {
          "indexed": true,
          "internalType": "bytes32",
          "name": "previousAdminRole",
          "type": "bytes32"
        },
        {
          "indexed": true,
          "internalType": "bytes32",
          "name": "newAdminRole",
          "type": "bytes32"
        }
      ],
      "name": "RoleAdminChanged",
      "type": "event"
    },
    {
      "anonymous": false,
      "inputs": [
        {
          "indexed": true,
          "internalType": "bytes32",
          "name": "role",
          "type": "bytes32"
        },
        {
          "indexed": true,
          "internalType": "address",
          "name": "account",
          "type": "address"
        },
        {
          "indexed": true,
          "internalType": "address",
          "name": "sender",
          "type": "address"
        }
      ],
      "name": "RoleGranted",
      "type": "event"
    },
    {
      "anonymous": false,
      "inputs": [
        {
          "indexed": true,
          "internalType": "bytes32",
          "name": "role",
          "type": "bytes32"
        },
        {
          "indexed": true,
          "internalType": "address",
          "name": "account",
          "type": "address"
        },
        {
          "indexed": true,
          "internalType": "address",
          "name": "sender",
          "type": "address"
        }
      ],
      "name": "RoleRevoked",
      "type": "event"
    },
    {
      "anonymous": false,
      "inputs": [
        {
          "indexed": false,
          "internalType": "address",
          "name": "account",
          "type": "address"
        }
      ],
      "name": "Unpaused",
      "type": "event"
    },
    {
      "inputs": [],
      "name": "DEFAULT_ADMIN_ROLE",
      "outputs": [
        {
          "internalType": "bytes32",
          "name": "",
          "type": "bytes32"
        }
      ],
      "stateMutability": "view",
      "type": "function"
    },
    {
      "inputs": [],
      "name": "accessManager",
      "outputs": [
        {
          "internalType": "contract AccessManager",
          "name": "",
          "type": "address"
        }
      ],
      "stateMutability": "view",
      "type": "function"
    },
    {
      "inputs": [
        {
          "internalType": "bytes32[]",
          "name": "deviceHashes",
          "type": "bytes32[]"
        },
        {
          "internalType": "bytes32[]",
          "name": "dataTypes",
          "type": "bytes32[]"
        },
        {
          "internalType": "bytes32[]",
          "name": "dataHashes",
          "type": "bytes32[]"
        }
      ],
      "name": "batchRecordData",
      "outputs": [],
      "stateMutability": "nonpayable",
      "type": "function"
    },
    {
      "inputs": [],
      "name": "deviceRegistry",
      "outputs": [
        {
          "internalType": "contract IDeviceRegistry",
          "name": "",
          "type": "address"
        }
      ],
      "stateMutability": "view",
      "type": "function"
    },
    {
      "inputs": [
        {
          "internalType": "bytes32",
          "name": "deviceHash",
          "type": "bytes32"
        },
        {
          "internalType": "uint256",
          "name": "start",
          "type": "uint256"
        },
        {
          "internalType": "uint256",
          "name": "count",
          "type": "uint256"
        }
      ],
      "name": "getRecords",
      "outputs": [
        {
          "components": [
            {
              "internalType": "bytes32",
              "name": "dataHash",
              "type": "bytes32"
            },
            {
              "internalType": "bytes32",
              "name": "dataType",
              "type": "bytes32"
            },
            {
              "internalType": "uint40",
              "name": "timestamp",
              "type": "uint40"
            },
            {
              "internalType": "address",
              "name": "validator",
              "type": "address"
            },
            {
              "internalType": "bool",
              "name": "isValidated",
              "type": "bool"
            }
          ],
          "internalType": "struct IoTDataLedger.DataRecord[]",
          "name": "",
          "type": "tuple[]"
        }
      ],
      "stateMutability": "view",
      "type": "function"
    },
    {
      "inputs": [
        {
          "internalType": "bytes32",
          "name": "role",
          "type": "bytes32"
        }
      ],
      "name": "getRoleAdmin",
      "outputs": [
        {
          "internalType": "bytes32",
          "name": "",
          "type": "bytes32"
        }
      ],
      "stateMutability": "view",
      "type": "function"
    },
    {
      "inputs": [
        {
          "internalType": "bytes32",
          "name": "deviceHash",
          "type": "bytes32"
        },
        {
          "internalType": "uint256",
          "name": "index",
          "type": "uint256"
        }
      ],
      "name": "getTimestampByIndex",
      "outputs": [
        {
          "internalType": "uint40",
          "name": "",
          "type": "uint40"
        }
      ],
      "stateMutability": "view",
      "type": "function"
    },
    {
      "inputs": [
        {
          "internalType": "bytes32",
          "name": "deviceHash",
          "type": "bytes32"
        }
      ],
      "name": "getValidationCount",
      "outputs": [
        {
          "internalType": "uint256",
          "name": "",
          "type": "uint256"
        }
      ],
      "stateMutability": "view",
      "type": "function"
    },
    {
      "inputs": [
        {
          "internalType": "bytes32",
          "name": "role",
          "type": "bytes32"
        },
        {
          "internalType": "address",
          "name": "account",
          "type": "address"
        }
      ],
      "name": "grantRole",
      "outputs": [],
      "stateMutability": "nonpayable",
      "type": "function"
    },
    {
      "inputs": [
        {
          "internalType": "bytes32",
          "name": "role",
          "type": "bytes32"
        },
        {
          "internalType": "address",
          "name": "account",
          "type": "address"
        }
      ],
      "name": "hasRole",
      "outputs": [
        {
          "internalType": "bool",
          "name": "",
          "type": "bool"
        }
      ],
      "stateMutability": "view",
      "type": "function"
    },
    {
      "inputs": [],
      "name": "pause",
      "outputs": [],
      "stateMutability": "nonpayable",
      "type": "function"
    },
    {
      "inputs": [],
      "name": "paused",
      "outputs": [
        {
          "internalType": "bool",
          "name": "",
          "type": "bool"
        }
      ],
      "stateMutability": "view",
      "type": "function"
    },
    {
      "inputs": [
        {
          "internalType": "bytes32",
          "name": "deviceHash",
          "type": "bytes32"
        },
        {
          "internalType": "bytes32",
          "name": "dataType",
          "type": "bytes32"
        },
        {
          "internalType": "bytes32",
          "name": "dataHash",
          "type": "bytes32"
        }
      ],
      "name": "recordData",
      "outputs": [],
      "stateMutability": "nonpayable",
      "type": "function"
    },
    {
      "inputs": [
        {
          "internalType": "bytes32",
          "name": "role",
          "type": "bytes32"
        },
        {
          "internalType": "address",
          "name": "account",
          "type": "address"
        }
      ],
      "name": "renounceRole",
      "outputs": [],
      "stateMutability": "nonpayable",
      "type": "function"
    },
    {
      "inputs": [
        {
          "internalType": "bytes32",
          "name": "role",
          "type": "bytes32"
        },
        {
          "internalType": "address",
          "name": "account",
          "type": "address"
        }
      ],
      "name": "revokeRole",
      "outputs": [],
      "stateMutability": "nonpayable",
      "type": "function"
    },
    {
      "inputs": [
        {
          "internalType": "bytes4",
          "name": "interfaceId",
          "type": "bytes4"
        }
      ],
      "name": "supportsInterface",
      "outputs": [
        {
          "internalType": "bool",
          "name": "",
          "type": "bool"
        }
      ],
      "stateMutability": "view",
      "type": "function"
    },
    {
      "inputs": [],
      "name": "unpause",
      "outputs": [],
      "stateMutability": "nonpayable",
      "type": "function"
    },
    {
      "inputs": [
        {
          "internalType": "bytes32",
          "name": "deviceHash",
          "type": "bytes32"
        },
        {
          "internalType": "uint40",
          "name": "timestamp",
          "type": "uint40"
        }
      ],
      "name": "validateData",
      "outputs": [],
      "stateMutability": "nonpayable",
      "type": "function"
    }
  ],
  "bytecode": "0x60c06040523480156200001157600080fd5b506040516200189c3803806200189c833981016040819052620000349162000127565b6001805460ff191681556002556001600160a01b03808316608052811660a0526200006160003362000069565b50506200015f565b6000828152602081815260408083206001600160a01b038516845290915290205460ff1662000106576000828152602081815260408083206001600160a01b03851684529091529020805460ff19166001179055620000c53390565b6001600160a01b0316816001600160a01b0316837f2f8788117e7eff1d82e926ec794901d17c78024a50270940304540a733656f0d60405160405180910390a45b5050565b80516001600160a01b03811681146200012257600080fd5b919050565b600080604083850312156200013b57600080fd5b62000146836200010a565b915062000156602084016200010a565b90509250929050565b60805160a0516116ed620001af600039600081816101c701528181610b150152610bc50152600081816102cb0152818161058d015281816105bc01528181610c440152610c7301526116ed6000f3fe608060405234801561001057600080fd5b50600436106101165760003560e01c80638456cb59116100a2578063c824286c11610071578063c824286c1461026d578063d547741f14610280578063dcd5eaae14610293578063f313cfa7146102b3578063fdcb6068146102c657600080fd5b80638456cb591461022a57806391d148541461023257806391f3c3ef14610245578063a217fddf1461026557600080fd5b806336568abe116100e957806336568abe1461019c5780633f4ba83a146101af5780635c975abb146101b75780635efb870a146101c25780636940b72c1461020157600080fd5b806301ffc9a71461011b57806315ccd9d114610143578063248a9ca3146101585780632f2ff15d14610189575b600080fd5b61012e610129366004611279565b6102ed565b60405190151581526020015b60405180910390f35b6101566101513660046112ef565b610324565b005b61017b610166366004611389565b60009081526020819052604090206001015490565b60405190815260200161013a565b6101566101973660046113b7565b610437565b6101566101aa3660046113b7565b610461565b6101566104e4565b60015460ff1661012e565b6101e97f000000000000000000000000000000000000000000000000000000000000000081565b6040516001600160a01b03909116815260200161013a565b61021461020f3660046113e7565b6104fa565b60405164ffffffffff909116815260200161013a565b61015661054f565b61012e6102403660046113b7565b610562565b61017b610253366004611389565b60009081526004602052604090205490565b61017b600081565b61015661027b366004611409565b61058b565b61015661028e3660046113b7565b610891565b6102a66102a1366004611438565b6108b6565b60405161013a9190611464565b6101566102c1366004611438565b610a28565b6101e97f000000000000000000000000000000000000000000000000000000000000000081565b60006001600160e01b03198216637965db0b60e01b148061031e57506301ffc9a760e01b6001600160e01b03198316145b92915050565b61032c610a60565b610334610aa8565b8483811415806103445750808214155b1561036257604051635cb045db60e01b815260040160405180910390fd5b60005b818110156104235761038e888883818110610382576103826114e4565b90506020020135610aff565b6103c88686838181106103a3576103a36114e4565b905060200201358585848181106103bc576103bc6114e4565b90506020020135610d79565b61041b8888838181106103dd576103dd6114e4565b905060200201358787848181106103f6576103f66114e4565b9050602002013586868581811061040f5761040f6114e4565b90506020020135610da2565b600101610365565b505061042f6001600255565b505050505050565b60008281526020819052604090206001015461045281610ea2565b61045c8383610eac565b505050565b6001600160a01b03811633146104d65760405162461bcd60e51b815260206004820152602f60248201527f416363657373436f6e74726f6c3a2063616e206f6e6c792072656e6f756e636560448201526e103937b632b9903337b91039b2b63360891b60648201526084015b60405180910390fd5b6104e08282610f30565b5050565b60006104ef81610ea2565b6104f7610f95565b50565b60008281526003602052604081208054831061051a57600091505061031e565b80838154811061052c5761052c6114e4565b600091825260209091206003909102016002015464ffffffffff16949350505050565b600061055a81610ea2565b6104f7610fe7565b6000918252602082815260408084206001600160a01b0393909316845291905290205460ff1690565b7f00000000000000000000000000000000000000000000000000000000000000006001600160a01b03166391d148547f00000000000000000000000000000000000000000000000000000000000000006001600160a01b0316638b78f4a46040518163ffffffff1660e01b8152600401602060405180830381865afa158015610618573d6000803e3d6000fd5b505050506040513d601f19601f8201168201806040525081019061063c91906114fa565b6040516001600160e01b031960e084901b1681526004810191909152336024820152604401602060405180830381865afa15801561067e573d6000803e3d6000fd5b505050506040513d601f19601f820116820180604052508101906106a29190611513565b6106bf5760405163fd8d1d0960e01b815260040160405180910390fd5b6106c7610aa8565b600082815260036020526040812090805b8254811015610866578364ffffffffff168382815481106106fb576106fb6114e4565b600091825260209091206002600390920201015464ffffffffff160361085e5782818154811061072d5761072d6114e4565b906000526020600020906003020160020160199054906101000a900460ff161561076a5760405163159ab3dd60e11b815260040160405180910390fd5b3383828154811061077d5761077d6114e4565b906000526020600020906003020160020160056101000a8154816001600160a01b0302191690836001600160a01b0316021790555060018382815481106107c6576107c66114e4565b600091825260208083206002600390930201919091018054931515600160c81b0260ff60c81b199094169390931790925586815260049091526040812080549161080f8361154b565b90915550506040805164ffffffffff861681523360208201526001935086917f061ded7ca3a8548715949a9d5582cdeb08d4cae57bd1480e9db9bdbffbdc7550910160405180910390a2610866565b6001016106d8565b508061088557604051635cb045db60e01b815260040160405180910390fd5b50506104e06001600255565b6000828152602081905260409020600101546108ac81610ea2565b61045c8383610f30565b60008381526003602052604081206060916108d18486611564565b825490915081116108e257806108e5565b81545b905060006108f38683611577565b67ffffffffffffffff81111561090b5761090b61158a565b60405190808252806020026020018201604052801561096457816020015b6040805160a0810182526000808252602080830182905292820181905260608201819052608082015282526000199092019101816109295790505b509050855b82811015610a1d57838181548110610983576109836114e4565b60009182526020918290206040805160a0810182526003939093029091018054835260018101549383019390935260029092015464ffffffffff8116928201929092526501000000000082046001600160a01b03166060820152600160c81b90910460ff1615156080820152826109fa8984611577565b81518110610a0a57610a0a6114e4565b6020908102919091010152600101610969565b509695505050505050565b610a30610a60565b610a38610aa8565b610a4183610aff565b610a4b8282610d79565b610a56838383610da2565b61045c6001600255565b60015460ff1615610aa65760405162461bcd60e51b815260206004820152601060248201526f14185d5cd8589b194e881c185d5cd95960821b60448201526064016104cd565b565b6002805403610af95760405162461bcd60e51b815260206004820152601f60248201527f5265656e7472616e637947756172643a207265656e7472616e742063616c6c0060448201526064016104cd565b60028055565b604051635ec8fe6b60e01b8152600481018290527f00000000000000000000000000000000000000000000000000000000000000006001600160a01b031690635ec8fe6b90602401602060405180830381865afa158015610b64573d6000803e3d6000fd5b505050506040513d601f19601f82011682018060405250810190610b889190611513565b610ba557604051632d64aeef60e21b815260040160405180910390fd5b6040516316f936c560e01b81526004810182905233906001600160a01b037f000000000000000000000000000000000000000000000000000000000000000016906316f936c590602401602060405180830381865afa158015610c0c573d6000803e3d6000fd5b505050506040513d601f19601f82011682018060405250810190610c3091906115a0565b6001600160a01b031614158015610d5b57507f00000000000000000000000000000000000000000000000000000000000000006001600160a01b03166391d148547f00000000000000000000000000000000000000000000000000000000000000006001600160a01b0316638b78f4a46040518163ffffffff1660e01b8152600401602060405180830381865afa158015610ccf573d6000803e3d6000fd5b505050506040513d601f19601f82011682018060405250810190610cf391906114fa565b6040516001600160e01b031960e084901b1681526004810191909152336024820152604401602060405180830381865afa158015610d35573d6000803e3d6000fd5b505050506040513d601f19601f82011682018060405250810190610d599190611513565b155b156104f757604051631a27eac360e11b815260040160405180910390fd5b811580610d84575080155b156104e057604051635cb045db60e01b815260040160405180910390fd5b6040805160a081018252828152602080820185815264ffffffffff428116848601908152600060608601818152608087018281528b835260038088528984208054600181810183559186529890942089519890910201968755945191860191909155905160029094018054915193511515600160c81b0260ff60c81b196001600160a01b039590951665010000000000026001600160c81b031990931693861693909317919091179290921617905591519091849186917f9710f0dac1f55724d441d7579b53c0c9f57ed5f4cc694ee12380343e260b64af91610e949187825264ffffffffff16602082015260400190565b60405180910390a350505050565b6104f78133611022565b610eb68282610562565b6104e0576000828152602081815260408083206001600160a01b03851684529091529020805460ff19166001179055610eec3390565b6001600160a01b0316816001600160a01b0316837f2f8788117e7eff1d82e926ec794901d17c78024a50270940304540a733656f0d60405160405180910390a45050565b610f3a8282610562565b156104e0576000828152602081815260408083206001600160a01b0385168085529252808320805460ff1916905551339285917ff6391f5c32d9c69d2a47ea670b442974b53935d1edc7fd64eb21e047a839171b9190a45050565b610f9d61107b565b6001805460ff191690557f5db9ee0a495bf2e6ff9c91a7834c1ba4fdd244a5e8aa4e537bd38aeae4b073aa335b6040516001600160a01b03909116815260200160405180910390a1565b610fef610a60565b6001805460ff1916811790557f62e78cea01bee320cd4e420270b5ea74000d11b0c9f74754ebdbfc544b05a25833610fca565b61102c8282610562565b6104e057611039816110c4565b6110448360206110d6565b6040516020016110559291906115e1565b60408051601f198184030181529082905262461bcd60e51b82526104cd91600401611656565b60015460ff16610aa65760405162461bcd60e51b815260206004820152601460248201527314185d5cd8589b194e881b9bdd081c185d5cd95960621b60448201526064016104cd565b606061031e6001600160a01b03831660145b606060006110e5836002611689565b6110f0906002611564565b67ffffffffffffffff8111156111085761110861158a565b6040519080825280601f01601f191660200182016040528015611132576020820181803683370190505b509050600360fc1b8160008151811061114d5761114d6114e4565b60200101906001600160f81b031916908160001a905350600f60fb1b8160018151811061117c5761117c6114e4565b60200101906001600160f81b031916908160001a90535060006111a0846002611689565b6111ab906001611564565b90505b6001811115611223576f181899199a1a9b1b9c1cb0b131b232b360811b85600f16601081106111df576111df6114e4565b1a60f81b8282815181106111f5576111f56114e4565b60200101906001600160f81b031916908160001a90535060049490941c9361121c816116a0565b90506111ae565b5083156112725760405162461bcd60e51b815260206004820181905260248201527f537472696e67733a20686578206c656e67746820696e73756666696369656e7460448201526064016104cd565b9392505050565b60006020828403121561128b57600080fd5b81356001600160e01b03198116811461127257600080fd5b60008083601f8401126112b557600080fd5b50813567ffffffffffffffff8111156112cd57600080fd5b6020830191508360208260051b85010111156112e857600080fd5b9250929050565b6000806000806000806060878903121561130857600080fd5b863567ffffffffffffffff8082111561132057600080fd5b61132c8a838b016112a3565b9098509650602089013591508082111561134557600080fd5b6113518a838b016112a3565b9096509450604089013591508082111561136a57600080fd5b5061137789828a016112a3565b979a9699509497509295939492505050565b60006020828403121561139b57600080fd5b5035919050565b6001600160a01b03811681146104f757600080fd5b600080604083850312156113ca57600080fd5b8235915060208301356113dc816113a2565b809150509250929050565b600080604083850312156113fa57600080fd5b50508035926020909101359150565b6000806040838503121561141c57600080fd5b82359150602083013564ffffffffff811681146113dc57600080fd5b60008060006060848603121561144d57600080fd5b505081359360208301359350604090920135919050565b602080825282518282018190526000919060409081850190868401855b828110156114d75781518051855286810151878601528581015164ffffffffff16868601526060808201516001600160a01b03169086015260809081015115159085015260a09093019290850190600101611481565b5091979650505050505050565b634e487b7160e01b600052603260045260246000fd5b60006020828403121561150c57600080fd5b5051919050565b60006020828403121561152557600080fd5b8151801515811461127257600080fd5b634e487b7160e01b600052601160045260246000fd5b60006001820161155d5761155d611535565b5060010190565b8082018082111561031e5761031e611535565b8181038181111561031e5761031e611535565b634e487b7160e01b600052604160045260246000fd5b6000602082840312156115b257600080fd5b8151611272816113a2565b60005b838110156115d85781810151838201526020016115c0565b50506000910152565b7f416363657373436f6e74726f6c3a206163636f756e74200000000000000000008152600083516116198160178501602088016115bd565b7001034b99036b4b9b9b4b733903937b6329607d1b601791840191820152835161164a8160288401602088016115bd565b01602801949350505050565b60208152600082518060208401526116758160408501602087016115bd565b601f01601f19169190910160400192915050565b808202811582820484141761031e5761031e611535565b6000816116af576116af611535565b50600019019056fea2646970667358221220f3a6b5a3e9fd7e8f9ed6df8e344102b7d81304a9714b230ba83c6bf6caa97dcd64736f6c63430008130033",
  "linkReferences": {},
  "deployedLinkReferences": {}
}