{
  "_format": "hh-sol-artifact-1",
  "contractName": "OracleIntegration",
  "sourceName": "contracts/OracleIntegration.sol",
  "abi": [
    {
      "inputs": [
        {
          "internalType": "address",
          "name": "_accessManager",
          "type": "address"
        },
        {
          "internalType": "address",
          "name": "_linkToken",
          "type": "address"
        },
        {
          "internalType": "address",
          "name": "_oracle",
          "type": "address"
        },
        {
          "internalType": "bytes32",
          "name": "_jobId",
          "type": "bytes32"
        },
        {
          "internalType": "uint256",
          "name": "_fee",
          "type": "uint256"
        },
        {
          "internalType": "address",
          "name": "_dataLedger",
          "type": "address"
        },
        {
          "internalType": "address",
          "name": "_rewardToken",
          "type": "address"
        }
      ],
      "stateMutability": "nonpayable",
      "type": "constructor"
    },
    {
      "anonymous": false,
      "inputs": [
        {
          "indexed": true,
          "internalType": "bytes32",
          "name": "id",
          "type": "bytes32"
        }
      ],
      "name": "ChainlinkCancelled",
      "type": "event"
    },
    {
      "anonymous": false,
      "inputs": [
        {
          "indexed": true,
          "internalType": "bytes32",
          "name": "id",
          "type": "bytes32"
        }
      ],
      "name": "ChainlinkFulfilled",
      "type": "event"
    },
    {
      "anonymous": false,
      "inputs": [
        {
          "indexed": true,
          "internalType": "bytes32",
          "name": "id",
          "type": "bytes32"
        }
      ],
      "name": "ChainlinkRequested",
      "type": "event"
    },
    {
      "anonymous": false,
      "inputs": [
        {
          "indexed": true,
          "internalType": "bytes32",
          "name": "deviceHash",
          "type": "bytes32"
        },
        {
          "indexed": false,
          "internalType": "uint256",
          "name": "recordIndex",
          "type": "uint256"
        },
        {
          "indexed": false,
          "internalType": "bool",
          "name": "finalValidity",
          "type": "bool"
        },
        {
          "indexed": true,
          "internalType": "address",
          "name": "resolver",
          "type": "address"
        }
      ],
      "name": "DisputeResolved",
      "type": "event"
    },
    {
      "anonymous": false,
      "inputs": [
        {
          "indexed": true,
          "internalType": "bytes32",
          "name": "requestId",
          "type": "bytes32"
        },
        {
          "indexed": false,
          "internalType": "bool",
          "name": "isValid",
          "type": "bool"
        },
        {
          "indexed": true,
          "internalType": "address",
          "name": "validator",
          "type": "address"
        }
      ],
      "name": "VerificationCompleted",
      "type": "event"
    },
    {
      "anonymous": false,
      "inputs": [
        {
          "indexed": true,
          "internalType": "bytes32",
          "name": "requestId",
          "type": "bytes32"
        },
        {
          "indexed": true,
          "internalType": "bytes32",
          "name": "deviceHash",
          "type": "bytes32"
        },
        {
          "indexed": false,
          "internalType": "uint256",
          "name": "recordIndex",
          "type": "uint256"
        },
        {
          "indexed": true,
          "internalType": "address",
          "name": "disputer",
          "type": "address"
        }
      ],
      "name": "VerificationRequested",
      "type": "event"
    },
    {
      "inputs": [],
      "name": "accessManager",
      "outputs": [
        {
          "internalType": "contract AccessManager",
          "name": "",
          "type": "address"
        }
      ],
      "stateMutability": "view",
      "type": "function"
    },
    {
      "inputs": [],
      "name": "dataLedger",
      "outputs": [
        {
          "internalType": "contract IoTDataLedger",
          "name": "",
          "type": "address"
        }
      ],
      "stateMutability": "view",
      "type": "function"
    },
    {
      "inputs": [
        {
          "internalType": "bytes32",
          "name": "_requestId",
          "type": "bytes32"
        },
        {
          "internalType": "bool",
          "name": "_isValid",
          "type": "bool"
        }
      ],
      "name": "fulfillVerification",
      "outputs": [],
      "stateMutability": "nonpayable",
      "type": "function"
    },
    {
      "inputs": [
        {
          "internalType": "bytes32",
          "name": "deviceHash",
          "type": "bytes32"
        },
        {
          "internalType": "uint256",
          "name": "recordIndex",
          "type": "uint256"
        },
        {
          "internalType": "string",
          "name": "externalAPI",
          "type": "string"
        }
      ],
      "name": "requestDataVerification",
      "outputs": [
        {
          "internalType": "bytes32",
          "name": "requestId",
          "type": "bytes32"
        }
      ],
      "stateMutability": "nonpayable",
      "type": "function"
    },
    {
      "inputs": [
        {
          "internalType": "bytes32",
          "name": "",
          "type": "bytes32"
        }
      ],
      "name": "requestIdToKey",
      "outputs": [
        {
          "internalType": "bytes32",
          "name": "",
          "type": "bytes32"
        }
      ],
      "stateMutability": "view",
      "type": "function"
    },
    {
      "inputs": [
        {
          "internalType": "bytes32",
          "name": "",
          "type": "bytes32"
        }
      ],
      "name": "requests",
      "outputs": [
        {
          "internalType": "bytes32",
          "name": "deviceHash",
          "type": "bytes32"
        },
        {
          "internalType": "uint256",
          "name": "recordIndex",
          "type": "uint256"
        },
        {
          "internalType": "address",
          "name": "disputer",
          "type": "address"
        },
        {
          "internalType": "bool",
          "name": "resolved",
          "type": "bool"
        },
        {
          "internalType": "uint256",
          "name": "timestamp",
          "type": "uint256"
        }
      ],
      "stateMutability": "view",
      "type": "function"
    },
    {
      "inputs": [
        {
          "internalType": "bytes32",
          "name": "deviceHash",
          "type": "bytes32"
        },
        {
          "internalType": "uint256",
          "name": "recordIndex",
          "type": "uint256"
        },
        {
          "internalType": "bool",
          "name": "finalValidity",
          "type": "bool"
        }
      ],
      "name": "resolveDispute",
      "outputs": [],
      "stateMutability": "nonpayable",
      "type": "function"
    },
    {
      "inputs": [],
      "name": "rewardToken",
      "outputs": [
        {
          "internalType": "contract TokenRewards",
          "name": "",
          "type": "address"
        }
      ],
      "stateMutability": "view",
      "type": "function"
    },
    {
      "inputs": [
        {
          "internalType": "address",
          "name": "newOracle",
          "type": "address"
        },
        {
          "internalType": "bytes32",
          "name": "newJobId",
          "type": "bytes32"
        },
        {
          "internalType": "uint256",
          "name": "newFee",
          "type": "uint256"
        }
      ],
      "name": "updateOracleConfig",
      "outputs": [],
      "stateMutability": "nonpayable",
      "type": "function"
    },
    {
      "inputs": [
        {
          "internalType": "bytes32",
          "name": "",
          "type": "bytes32"
        },
        {
          "internalType": "uint256",
          "name": "",
          "type": "uint256"
        }
      ],
      "name": "validRecords",
      "outputs": [
        {
          "internalType": "bool",
          "name": "",
          "type": "bool"
        }
      ],
      "stateMutability": "view",
      "type": "function"
    },
    {
      "inputs": [],
      "name": "withdrawLink",
      "outputs": [],
      "stateMutability": "nonpayable",
      "type": "function"
    }
  ],
  "bytecode": "0x60e060405260016004553480156200001657600080fd5b5060405162002253380380620022538339810160408190526200003991620000e4565b60016006556001600160a01b0387166080526200007286600280546001600160a01b0319166001600160a01b0392909216919091179055565b600380546001600160a01b0319166001600160a01b038716179055600780546001600160a01b0319166001600160a01b03968716179055600893909355600991909155821660a0521660c05250620001679050565b80516001600160a01b0381168114620000df57600080fd5b919050565b600080600080600080600060e0888a0312156200010057600080fd5b6200010b88620000c7565b96506200011b60208901620000c7565b95506200012b60408901620000c7565b945060608801519350608088015192506200014960a08901620000c7565b91506200015960c08901620000c7565b905092959891949750929550565b60805160a05160c05161205b620001f86000396000818161021401528181610a39015261132601526000818160f6015281816108f70152818161099f015281816111ea015261128f01526000818161026101528181610285015281816102b4015281816103f501528181610424015281816107f201528181610e2601528181610e5501526110eb015261205b6000f3fe608060405234801561001057600080fd5b50600436106100a95760003560e01c80639d866985116100715780639d8669851461017b578063efd71634146101fc578063f7c618c11461020f578063f94928a914610236578063faf0bbbf14610249578063fdcb60681461025c57600080fd5b80630da19556146100ae5780633a234a4a146100f15780638002a7f8146101305780638dc654a214610145578063922d2aa61461014d575b600080fd5b6100dc6100bc366004611bd1565b600b60209081526000928352604080842090915290825290205460ff1681565b60405190151581526020015b60405180910390f35b6101187f000000000000000000000000000000000000000000000000000000000000000081565b6040516001600160a01b0390911681526020016100e8565b61014361013e366004611bf3565b610283565b005b6101436103f3565b61016d61015b366004611c34565b600c6020526000908152604090205481565b6040519081526020016100e8565b6101c6610189366004611c34565b600a602052600090815260409020805460018201546002830154600390930154919290916001600160a01b03821691600160a01b900460ff169085565b6040805195865260208601949094526001600160a01b03909216928401929092529015156060830152608082015260a0016100e8565b61014361020a366004611c5b565b610662565b6101187f000000000000000000000000000000000000000000000000000000000000000081565b61016d610244366004611c8b565b610ae4565b610143610257366004611d0b565b610e24565b6101187f000000000000000000000000000000000000000000000000000000000000000081565b7f00000000000000000000000000000000000000000000000000000000000000006001600160a01b03166391d148547f00000000000000000000000000000000000000000000000000000000000000006001600160a01b031663662580686040518163ffffffff1660e01b8152600401602060405180830381865afa158015610310573d6000803e3d6000fd5b505050506040513d601f19601f820116820180604052508101906103349190611d44565b6040516001600160e01b031960e084901b1681526004810191909152336024820152604401602060405180830381865afa158015610376573d6000803e3d6000fd5b505050506040513d601f19601f8201168201806040525081019061039a9190611d5d565b6103bf5760405162461bcd60e51b81526004016103b690611d7a565b60405180910390fd5b600380546001600160a01b03949094166001600160a01b031994851681179091556007805490941617909255600855600955565b7f00000000000000000000000000000000000000000000000000000000000000006001600160a01b03166391d148547f00000000000000000000000000000000000000000000000000000000000000006001600160a01b031663662580686040518163ffffffff1660e01b8152600401602060405180830381865afa158015610480573d6000803e3d6000fd5b505050506040513d601f19601f820116820180604052508101906104a49190611d44565b6040516001600160e01b031960e084901b1681526004810191909152336024820152604401602060405180830381865afa1580156104e6573d6000803e3d6000fd5b505050506040513d601f19601f8201168201806040525081019061050a9190611d5d565b6105265760405162461bcd60e51b81526004016103b690611d7a565b600061053a6002546001600160a01b031690565b6040516370a0823160e01b81523060048201529091506001600160a01b0382169063a9059cbb90339083906370a0823190602401602060405180830381865afa15801561058b573d6000803e3d6000fd5b505050506040513d601f19601f820116820180604052508101906105af9190611d44565b6040516001600160e01b031960e085901b1681526001600160a01b03909216600483015260248201526044016020604051808303816000875af11580156105fa573d6000803e3d6000fd5b505050506040513d601f19601f8201168201806040525081019061061e9190611d5d565b61065f5760405162461bcd60e51b81526020600482015260126024820152712ab730b13632903a37903a3930b739b332b960711b60448201526064016103b6565b50565b60008281526005602052604090205482906001600160a01b031633146106db5760405162461bcd60e51b815260206004820152602860248201527f536f75726365206d75737420626520746865206f7261636c65206f6620746865604482015267081c995c5d595cdd60c21b60648201526084016103b6565b60008181526005602052604080822080546001600160a01b03191690555182917f7cc135e0cebb02c3480ae5d74d377283180a2601f8f644edf7987b009316c63a91a26000838152600c6020908152604080832054808452600a9092529091206002810154600160a01b900460ff16156107975760405162461bcd60e51b815260206004820152601960248201527f5265717565737420616c72656164792070726f6365737365640000000000000060448201526064016103b6565b80546000908152600b6020908152604080832060018501548452825291829020805487151560ff1990911617905560028301805460ff60a01b1916600160a01b17905581516322de3d2960e21b815291516001600160a01b037f000000000000000000000000000000000000000000000000000000000000000016926391d14854928492638b78f4a49260048082019392918290030181865afa158015610842573d6000803e3d6000fd5b505050506040513d601f19601f820116820180604052508101906108669190611d44565b6040516001600160e01b031960e084901b1681526004810191909152306024820152604401602060405180830381865afa1580156108a8573d6000803e3d6000fd5b505050506040513d601f19601f820116820180604052508101906108cc9190611d5d565b15610a065780546001820154604051631a502dcb60e21b8152600481019290925260248201526000907f00000000000000000000000000000000000000000000000000000000000000006001600160a01b031690636940b72c90604401602060405180830381865afa158015610946573d6000803e3d6000fd5b505050506040513d601f19601f8201168201806040525081019061096a9190611d9d565b905064ffffffffff811615610a045781546040516332090a1b60e21b8152600481019190915264ffffffffff821660248201527f00000000000000000000000000000000000000000000000000000000000000006001600160a01b03169063c824286c90604401600060405180830381600087803b1580156109eb57600080fd5b505af11580156109ff573d6000803e3d6000fd5b505050505b505b83610a96578054600282015460405163492cb87160e11b815260048101929092526001600160a01b0390811660248301527f0000000000000000000000000000000000000000000000000000000000000000169063925970e290604401600060405180830381600087803b158015610a7d57600080fd5b505af1158015610a91573d6000803e3d6000fd5b505050505b6040518415158152329086907f472b66db47a1994b230aebb63a051ba7d145c7b9963b0127b46623a3c5fe8b139060200160405180910390a3505050600091825250600c6020526040812055565b6000610aee6113d4565b6000858152600b6020908152604080832087845290915290205460ff1615610b4c5760405162461bcd60e51b8152602060048201526011602482015270105b1c9958591e481d985b1a59185d1959607a1b60448201526064016103b6565b604080516020810187905290810185905260009060600160408051808303601f1901815291815281516020928301206000818152600a909352912060020154909150600160a01b900460ff1615610bf15760405162461bcd60e51b815260206004820152602360248201527f5265717565737420616c72656164792065786973747320616e64207265736f6c6044820152621d995960ea1b60648201526084016103b6565b6000610c076008543063efd7163460e01b61142d565b9050610c57604051806040016040528060068152602001651b595d1a1bd960d21b8152506040518060400160405280600381526020016211d15560ea1b815250836114529092919063ffffffff16565b610cb6604051806040016040528060038152602001621d5c9b60ea1b81525086868080601f0160208091040260200160405190810160405280939291908181526020018383808284376000920191909152508694939250506114529050565b610d06604051806040016040528060048152602001630e0c2e8d60e31b815250604051806040016040528060078152602001661a5cd5985b1a5960ca1b815250836114529092919063ffffffff16565b60408051808201909152600581526474696d657360d81b6020820152610d2f9082906001611470565b600754600954610d4a916001600160a01b031690839061148e565b6040805160a08101825289815260208082018a81523383850181815260006060860181815242608088019081528b8352600a87528883209751885594516001880155915160028701805493511515600160a01b026001600160a81b03199094166001600160a01b0390921691909117929092179091559151600390940193909355848152600c8252839020869055915189815292955091899186917fd2216946bd6b2b0aa9c6b9b98115de1dfcbd30e08ddfe8f1988451f7a3d92373910160405180910390a45050610e1c6001600655565b949350505050565b7f00000000000000000000000000000000000000000000000000000000000000006001600160a01b03166391d148547f00000000000000000000000000000000000000000000000000000000000000006001600160a01b031663662580686040518163ffffffff1660e01b8152600401602060405180830381865afa158015610eb1573d6000803e3d6000fd5b505050506040513d601f19601f82011682018060405250810190610ed59190611d44565b6040516001600160e01b031960e084901b1681526004810191909152336024820152604401602060405180830381865afa158015610f17573d6000803e3d6000fd5b505050506040513d601f19601f82011682018060405250810190610f3b9190611d5d565b610f575760405162461bcd60e51b81526004016103b690611d7a565b610f5f6113d4565b604080516020808201869052818301859052825180830384018152606090920183528151918101919091206000818152600a90925291902060028101546001600160a01b0316610ff15760405162461bcd60e51b815260206004820152601d60248201527f4e6f20766572696669636174696f6e207265717565737420666f756e6400000060448201526064016103b6565b6002810154600160a01b900460ff16156110405760405162461bcd60e51b815260206004820152601060248201526f105b1c9958591e481c995cdbdb1d995960821b60448201526064016103b6565b600381015461105190610e10611dda565b4210156110965760405162461bcd60e51b8152602060048201526013602482015272151a5b595bdd5d081b9bdd081c995858da1959606a1b60448201526064016103b6565b6000858152600b60209081526040808320878452825291829020805486151560ff1990911617905560028301805460ff60a01b1916600160a01b17905581516322de3d2960e21b815291516001600160a01b037f000000000000000000000000000000000000000000000000000000000000000016926391d14854928492638b78f4a49260048082019392918290030181865afa15801561113b573d6000803e3d6000fd5b505050506040513d601f19601f8201168201806040525081019061115f9190611d44565b6040516001600160e01b031960e084901b1681526004810191909152306024820152604401602060405180830381865afa1580156111a1573d6000803e3d6000fd5b505050506040513d601f19601f820116820180604052508101906111c59190611d5d565b156112f657604051631a502dcb60e21b815260048101869052602481018590526000907f00000000000000000000000000000000000000000000000000000000000000006001600160a01b031690636940b72c90604401602060405180830381865afa158015611239573d6000803e3d6000fd5b505050506040513d601f19601f8201168201806040525081019061125d9190611d9d565b905064ffffffffff8116156112f4576040516332090a1b60e21b81526004810187905264ffffffffff821660248201527f00000000000000000000000000000000000000000000000000000000000000006001600160a01b03169063c824286c90604401600060405180830381600087803b1580156112db57600080fd5b505af11580156112ef573d6000803e3d6000fd5b505050505b505b8261138557600281015460405163492cb87160e11b8152600481018790526001600160a01b0391821660248201527f00000000000000000000000000000000000000000000000000000000000000009091169063925970e290604401600060405180830381600087803b15801561136c57600080fd5b505af1158015611380573d6000803e3d6000fd5b505050505b604080518581528415156020820152339187917fbc15360fdbc18726032673554343b47ea8c03297136da385c28550253778baf5910160405180910390a350506113cf6001600655565b505050565b6002600654036114265760405162461bcd60e51b815260206004820152601f60248201527f5265656e7472616e637947756172643a207265656e7472616e742063616c6c0060448201526064016103b6565b6002600655565b611435611b96565b61143d611b96565b61144981868686611521565b95945050505050565b6080830151611461908361155e565b60808301516113cf908261155e565b608083015161147f908361155e565b60808301516113cf9082611575565b60045460009061149f816001611dda565b600455835160408086015160808701515191516000936320214ca360e11b936114d79386938493923092918a91600191602401611e33565b60408051601f198184030181529190526020810180516001600160e01b03166001600160e01b0319909316929092179091529050611517868386846115d9565b9695505050505050565b611529611b96565b6115398560800151610100611737565b50509183526001600160a01b031660208301526001600160e01b031916604082015290565b61156b82600383516117a2565b6113cf82826118b7565b67ffffffffffffffff198112156115945761159082826118e5565b5050565b67ffffffffffffffff8113156115ae576115908282611927565b600081126115c257611590826000836117a2565b6115908260016115d484600019611e9b565b6117a2565b6040516bffffffffffffffffffffffff193060601b1660208201526034810184905260009060540160408051808303601f1901815282825280516020918201206000818152600590925291812080546001600160a01b0319166001600160a01b038a1617905590925082917fb5e6e01e79f91267dc17b4e6314d5d4d03593d2ceee0fbb452b750bd70ea5af99190a2600254604051630200057560e51b81526001600160a01b0390911690634000aea09061169c90889087908790600401611ec2565b6020604051808303816000875af11580156116bb573d6000803e3d6000fd5b505050506040513d601f19601f820116820180604052508101906116df9190611d5d565b610e1c5760405162461bcd60e51b815260206004820152602360248201527f756e61626c6520746f207472616e73666572416e6443616c6c20746f206f7261604482015262636c6560e81b60648201526084016103b6565b604080518082019091526060815260006020820152611757602083611ee9565b1561177f57611767602083611ee9565b611772906020611f0b565b61177c9083611dda565b91505b506020808301829052604080518085526000815283019091019052815b92915050565b60178167ffffffffffffffff16116117cd576117c78360e0600585901b16831761194a565b50505050565b60ff8167ffffffffffffffff161161180b576117f4836018611fe0600586901b161761194a565b506117c78367ffffffffffffffff8316600161196f565b61ffff8167ffffffffffffffff161161184a57611833836019611fe0600586901b161761194a565b506117c78367ffffffffffffffff8316600261196f565b63ffffffff8167ffffffffffffffff161161188b5761187483601a611fe0600586901b161761194a565b506117c78367ffffffffffffffff8316600461196f565b6118a083601b611fe0600586901b161761194a565b506117c78367ffffffffffffffff8316600861196f565b6040805180820190915260608152600060208201526118de83846000015151848551611995565b9392505050565b6118f08260c361194a565b506115908261190183600019611e9b565b60405160200161191391815260200190565b604051602081830303815290604052611a7f565b6119328260c261194a565b50611590828260405160200161191391815260200190565b6040805180820190915260608152600060208201526118de8384600001515184611a8c565b604080518082019091526060815260006020820152610e1c848560000151518585611ae7565b60408051808201909152606081526000602082015282518211156119b857600080fd5b60208501516119c78386611dda565b11156119fa576119fa856119ea876020015187866119e59190611dda565b611b68565b6119f5906002611f1e565b611b7f565b600080865180518760208301019350808887011115611a195787860182525b505050602084015b60208410611a595780518252611a38602083611dda565b9150611a45602082611dda565b9050611a52602085611f0b565b9350611a21565b51815160001960208690036101000a019081169019919091161790525083949350505050565b61156b82600283516117a2565b60408051808201909152606081526000602082015283602001518310611ac157611ac184856020015160026119f59190611f1e565b8351805160208583010184815350808503611add576001810182525b5093949350505050565b6040805180820190915260608152600060208201526020850151611b0b8584611dda565b1115611b1f57611b1f856119ea8685611dda565b60006001611b2f84610100612019565b611b399190611f0b565b9050855183868201018583198251161781525080518487011115611b5d5783860181525b509495945050505050565b600081831115611b7957508161179c565b50919050565b8151611b8b8383611737565b506117c783826118b7565b6040805160a0810182526000808252602080830182905282840182905260608084018390528451808601909552845283015290608082015290565b60008060408385031215611be457600080fd5b50508035926020909101359150565b600080600060608486031215611c0857600080fd5b83356001600160a01b0381168114611c1f57600080fd5b95602085013595506040909401359392505050565b600060208284031215611c4657600080fd5b5035919050565b801515811461065f57600080fd5b60008060408385031215611c6e57600080fd5b823591506020830135611c8081611c4d565b809150509250929050565b60008060008060608587031215611ca157600080fd5b8435935060208501359250604085013567ffffffffffffffff80821115611cc757600080fd5b818701915087601f830112611cdb57600080fd5b813581811115611cea57600080fd5b886020828501011115611cfc57600080fd5b95989497505060200194505050565b600080600060608486031215611d2057600080fd5b83359250602084013591506040840135611d3981611c4d565b809150509250925092565b600060208284031215611d5657600080fd5b5051919050565b600060208284031215611d6f57600080fd5b81516118de81611c4d565b6020808252600990820152682737ba1030b236b4b760b91b604082015260600190565b600060208284031215611daf57600080fd5b815164ffffffffff811681146118de57600080fd5b634e487b7160e01b600052601160045260246000fd5b8082018082111561179c5761179c611dc4565b6000815180845260005b81811015611e1357602081850181015186830182015201611df7565b506000602082860101526020601f19601f83011685010191505092915050565b6001600160a01b0389811682526020820189905260408201889052861660608201526001600160e01b03198516608082015260a0810184905260c0810183905261010060e08201819052600090611e8c83820185611ded565b9b9a5050505050505050505050565b8181036000831280158383131683831282161715611ebb57611ebb611dc4565b5092915050565b60018060a01b03841681528260208201526060604082015260006114496060830184611ded565b600082611f0657634e487b7160e01b600052601260045260246000fd5b500690565b8181038181111561179c5761179c611dc4565b808202811582820484141761179c5761179c611dc4565b600181815b80851115611f70578160001904821115611f5657611f56611dc4565b80851615611f6357918102915b93841c9390800290611f3a565b509250929050565b600082611f875750600161179c565b81611f945750600061179c565b8160018114611faa5760028114611fb457611fd0565b600191505061179c565b60ff841115611fc557611fc5611dc4565b50506001821b61179c565b5060208310610133831016604e8410600b8410161715611ff3575081810a61179c565b611ffd8383611f35565b806000190482111561201157612011611dc4565b029392505050565b60006118de8383611f7856fea2646970667358221220dfca03719fd8dcb4327ff3b65620af7cfa3049594638503aef2feb00b5dbebc364736f6c63430008130033",
  "linkReferences": {},
  "deployedLinkReferences": {}
}