{
  "_format": "hh-sol-artifact-1",
  "contractName": "TokenRewards",
  "sourceName": "contracts/TokenRewards.sol",
  "abi": [
    {
      "inputs": [
        {
          "internalType": "address",
          "name": "_accessManager",
          "type": "address"
        },
        {
          "internalType": "address",
          "name": "_dataLedger",
          "type": "address"
        },
        {
          "internalType": "address",
          "name": "_oracleIntegration",
          "type": "address"
        }
      ],
      "stateMutability": "nonpayable",
      "type": "constructor"
    },
    {
      "inputs": [],
      "name": "InvalidPercentage",
      "type": "error"
    },
    {
      "inputs": [],
      "name": "NoRewardsAvailable",
      "type": "error"
    },
    {
      "inputs": [],
      "name": "NotAdmin",
      "type": "error"
    },
    {
      "inputs": [],
      "name": "NotOracle",
      "type": "error"
    },
    {
      "anonymous": false,
      "inputs": [
        {
          "indexed": true,
          "internalType": "address",
          "name": "owner",
          "type": "address"
        },
        {
          "indexed": true,
          "internalType": "address",
          "name": "spender",
          "type": "address"
        },
        {
          "indexed": false,
          "internalType": "uint256",
          "name": "value",
          "type": "uint256"
        }
      ],
      "name": "Approval",
      "type": "event"
    },
    {
      "anonymous": false,
      "inputs": [
        {
          "indexed": false,
          "internalType": "uint256",
          "name": "newRate",
          "type": "uint256"
        }
      ],
      "name": "RewardRateUpdated",
      "type": "event"
    },
    {
      "anonymous": false,
      "inputs": [
        {
          "indexed": true,
          "internalType": "address",
          "name": "operator",
          "type": "address"
        },
        {
          "indexed": false,
          "internalType": "uint256",
          "name": "amount",
          "type": "uint256"
        }
      ],
      "name": "RewardsClaimed",
      "type": "event"
    },
    {
      "anonymous": false,
      "inputs": [
        {
          "indexed": true,
          "internalType": "address",
          "name": "operator",
          "type": "address"
        },
        {
          "indexed": false,
          "internalType": "uint256",
          "name": "amount",
          "type": "uint256"
        }
      ],
      "name": "RewardsSlashed",
      "type": "event"
    },
    {
      "anonymous": false,
      "inputs": [
        {
          "indexed": false,
          "internalType": "uint256",
          "name": "newPercentage",
          "type": "uint256"
        }
      ],
      "name": "SlashPercentageUpdated",
      "type": "event"
    },
    {
      "anonymous": false,
      "inputs": [
        {
          "indexed": true,
          "internalType": "address",
          "name": "from",
          "type": "address"
        },
        {
          "indexed": true,
          "internalType": "address",
          "name": "to",
          "type": "address"
        },
        {
          "indexed": false,
          "internalType": "uint256",
          "name": "value",
          "type": "uint256"
        }
      ],
      "name": "Transfer",
      "type": "event"
    },
    {
      "inputs": [],
      "name": "accessManager",
      "outputs": [
        {
          "internalType": "contract AccessManager",
          "name": "",
          "type": "address"
        }
      ],
      "stateMutability": "view",
      "type": "function"
    },
    {
      "inputs": [
        {
          "internalType": "address",
          "name": "owner",
          "type": "address"
        },
        {
          "internalType": "address",
          "name": "spender",
          "type": "address"
        }
      ],
      "name": "allowance",
      "outputs": [
        {
          "internalType": "uint256",
          "name": "",
          "type": "uint256"
        }
      ],
      "stateMutability": "view",
      "type": "function"
    },
    {
      "inputs": [
        {
          "internalType": "address",
          "name": "spender",
          "type": "address"
        },
        {
          "internalType": "uint256",
          "name": "amount",
          "type": "uint256"
        }
      ],
      "name": "approve",
      "outputs": [
        {
          "internalType": "bool",
          "name": "",
          "type": "bool"
        }
      ],
      "stateMutability": "nonpayable",
      "type": "function"
    },
    {
      "inputs": [
        {
          "internalType": "address",
          "name": "account",
          "type": "address"
        }
      ],
      "name": "balanceOf",
      "outputs": [
        {
          "internalType": "uint256",
          "name": "",
          "type": "uint256"
        }
      ],
      "stateMutability": "view",
      "type": "function"
    },
    {
      "inputs": [
        {
          "internalType": "bytes32",
          "name": "deviceHash",
          "type": "bytes32"
        },
        {
          "internalType": "address",
          "name": "operator",
          "type": "address"
        }
      ],
      "name": "calculateRewards",
      "outputs": [
        {
          "internalType": "uint256",
          "name": "",
          "type": "uint256"
        }
      ],
      "stateMutability": "view",
      "type": "function"
    },
    {
      "inputs": [
        {
          "internalType": "bytes32",
          "name": "deviceHash",
          "type": "bytes32"
        }
      ],
      "name": "claimRewards",
      "outputs": [],
      "stateMutability": "nonpayable",
      "type": "function"
    },
    {
      "inputs": [],
      "name": "dataLedger",
      "outputs": [
        {
          "internalType": "contract IIoTDataLedger",
          "name": "",
          "type": "address"
        }
      ],
      "stateMutability": "view",
      "type": "function"
    },
    {
      "inputs": [],
      "name": "decimals",
      "outputs": [
        {
          "internalType": "uint8",
          "name": "",
          "type": "uint8"
        }
      ],
      "stateMutability": "pure",
      "type": "function"
    },
    {
      "inputs": [
        {
          "internalType": "address",
          "name": "spender",
          "type": "address"
        },
        {
          "internalType": "uint256",
          "name": "subtractedValue",
          "type": "uint256"
        }
      ],
      "name": "decreaseAllowance",
      "outputs": [
        {
          "internalType": "bool",
          "name": "",
          "type": "bool"
        }
      ],
      "stateMutability": "nonpayable",
      "type": "function"
    },
    {
      "inputs": [
        {
          "internalType": "address",
          "name": "user",
          "type": "address"
        }
      ],
      "name": "getSlashedBalance",
      "outputs": [
        {
          "internalType": "uint256",
          "name": "",
          "type": "uint256"
        }
      ],
      "stateMutability": "view",
      "type": "function"
    },
    {
      "inputs": [
        {
          "internalType": "address",
          "name": "user",
          "type": "address"
        }
      ],
      "name": "getUserBalance",
      "outputs": [
        {
          "internalType": "uint256",
          "name": "",
          "type": "uint256"
        }
      ],
      "stateMutability": "view",
      "type": "function"
    },
    {
      "inputs": [
        {
          "internalType": "address",
          "name": "spender",
          "type": "address"
        },
        {
          "internalType": "uint256",
          "name": "addedValue",
          "type": "uint256"
        }
      ],
      "name": "increaseAllowance",
      "outputs": [
        {
          "internalType": "bool",
          "name": "",
          "type": "bool"
        }
      ],
      "stateMutability": "nonpayable",
      "type": "function"
    },
    {
      "inputs": [],
      "name": "name",
      "outputs": [
        {
          "internalType": "string",
          "name": "",
          "type": "string"
        }
      ],
      "stateMutability": "view",
      "type": "function"
    },
    {
      "inputs": [],
      "name": "oracleIntegration",
      "outputs": [
        {
          "internalType": "address",
          "name": "",
          "type": "address"
        }
      ],
      "stateMutability": "view",
      "type": "function"
    },
    {
      "inputs": [
        {
          "internalType": "uint256",
          "name": "newRate",
          "type": "uint256"
        }
      ],
      "name": "setRewardRate",
      "outputs": [],
      "stateMutability": "nonpayable",
      "type": "function"
    },
    {
      "inputs": [
        {
          "internalType": "uint256",
          "name": "newPercentage",
          "type": "uint256"
        }
      ],
      "name": "setSlashPercentage",
      "outputs": [],
      "stateMutability": "nonpayable",
      "type": "function"
    },
    {
      "inputs": [
        {
          "internalType": "bytes32",
          "name": "",
          "type": "bytes32"
        },
        {
          "internalType": "address",
          "name": "operator",
          "type": "address"
        }
      ],
      "name": "slashRewards",
      "outputs": [],
      "stateMutability": "nonpayable",
      "type": "function"
    },
    {
      "inputs": [
        {
          "internalType": "address",
          "name": "",
          "type": "address"
        }
      ],
      "name": "slashedBalances",
      "outputs": [
        {
          "internalType": "uint256",
          "name": "",
          "type": "uint256"
        }
      ],
      "stateMutability": "view",
      "type": "function"
    },
    {
      "inputs": [],
      "name": "symbol",
      "outputs": [
        {
          "internalType": "string",
          "name": "",
          "type": "string"
        }
      ],
      "stateMutability": "view",
      "type": "function"
    },
    {
      "inputs": [],
      "name": "totalSupply",
      "outputs": [
        {
          "internalType": "uint256",
          "name": "",
          "type": "uint256"
        }
      ],
      "stateMutability": "view",
      "type": "function"
    },
    {
      "inputs": [
        {
          "internalType": "address",
          "name": "to",
          "type": "address"
        },
        {
          "internalType": "uint256",
          "name": "amount",
          "type": "uint256"
        }
      ],
      "name": "transfer",
      "outputs": [
        {
          "internalType": "bool",
          "name": "",
          "type": "bool"
        }
      ],
      "stateMutability": "nonpayable",
      "type": "function"
    },
    {
      "inputs": [
        {
          "internalType": "address",
          "name": "from",
          "type": "address"
        },
        {
          "internalType": "address",
          "name": "to",
          "type": "address"
        },
        {
          "internalType": "uint256",
          "name": "amount",
          "type": "uint256"
        }
      ],
      "name": "transferFrom",
      "outputs": [
        {
          "internalType": "bool",
          "name": "",
          "type": "bool"
        }
      ],
      "stateMutability": "nonpayable",
      "type": "function"
    }
  ],
  "bytecode": "0x60e06040523480156200001157600080fd5b5060405162001747380380620017478339810160408190526200003491620000f1565b6040518060400160405280601081526020016f496f542044617461204372656469747360801b8152506040518060400160405280600381526020016249444360e81b81525081600390816200008a9190620001e0565b506004620000998282620001e0565b50506001600555506001600160a01b0392831660805290821660a0521660c052700a00000000000000000de0b6b3a7640000600655620002ac565b80516001600160a01b0381168114620000ec57600080fd5b919050565b6000806000606084860312156200010757600080fd5b6200011284620000d4565b92506200012260208501620000d4565b91506200013260408501620000d4565b90509250925092565b634e487b7160e01b600052604160045260246000fd5b600181811c908216806200016657607f821691505b6020821081036200018757634e487b7160e01b600052602260045260246000fd5b50919050565b601f821115620001db57600081815260208120601f850160051c81016020861015620001b65750805b601f850160051c820191505b81811015620001d757828155600101620001c2565b5050505b505050565b81516001600160401b03811115620001fc57620001fc6200013b565b62000214816200020d845462000151565b846200018d565b602080601f8311600181146200024c5760008415620002335750858301515b600019600386901b1c1916600185901b178555620001d7565b600085815260208120601f198616915b828110156200027d578886015182559484019460019091019084016200025c565b50858210156200029c5787850151600019600388901b60f8161c191681555b5050505050600190811b01905550565b60805160a05160c05161143a6200030d60003960006102db0152600081816101e90152610b4f0152600081816103610152818161045501528181610484015281816106f501528181610724015281816109180152610947015261143a6000f3fe608060405234801561001057600080fd5b50600436106101425760003560e01c80637790ddc6116100b85780639e447fc61161007c5780639e447fc6146102fd578063a457c2d714610310578063a9059cbb14610323578063dceedf1714610336578063dd62ed3e14610349578063fdcb60681461035c57600080fd5b80637790ddc614610288578063925970e21461029b57806395d89b41146102ae57806395ed1187146102b65780639c6f1177146102d657600080fd5b8063393ebbf81161010a578063393ebbf8146101bc57806339509351146101d15780633a234a4a146101e45780634768b1ee14610223578063477348921461024c57806370a082311461025f57600080fd5b806306fdde0314610147578063095ea7b31461016557806318160ddd1461018857806323b872dd1461019a578063313ce567146101ad575b600080fd5b61014f610383565b60405161015c91906111b9565b60405180910390f35b610178610173366004611223565b610415565b604051901515815260200161015c565b6002545b60405190815260200161015c565b6101786101a836600461124d565b61042f565b6040516006815260200161015c565b6101cf6101ca366004611289565b610453565b005b6101786101df366004611223565b610600565b61020b7f000000000000000000000000000000000000000000000000000000000000000081565b6040516001600160a01b03909116815260200161015c565b61018c6102313660046112a2565b6001600160a01b031660009081526007602052604090205490565b61018c61025a3660046112a2565b610622565b61018c61026d3660046112a2565b6001600160a01b031660009081526020819052604090205490565b6101cf610296366004611289565b610640565b6101cf6102a93660046112c4565b6106f3565b61014f610907565b61018c6102c43660046112a2565b60076020526000908152604090205481565b61020b7f000000000000000000000000000000000000000000000000000000000000000081565b6101cf61030b366004611289565b610916565b61017861031e366004611223565b610a9e565b610178610331366004611223565b610b1e565b61018c6103443660046112c4565b610b2c565b61018c6103573660046112f0565b610c09565b61020b7f000000000000000000000000000000000000000000000000000000000000000081565b6060600380546103929061131a565b80601f01602080910402602001604051908101604052809291908181526020018280546103be9061131a565b801561040b5780601f106103e05761010080835404028352916020019161040b565b820191906000526020600020905b8154815290600101906020018083116103ee57829003601f168201915b5050505050905090565b600033610423818585610c34565b60019150505b92915050565b60003361043d858285610d59565b610448858585610dd3565b506001949350505050565b7f00000000000000000000000000000000000000000000000000000000000000006001600160a01b03166391d148547f00000000000000000000000000000000000000000000000000000000000000006001600160a01b031663662580686040518163ffffffff1660e01b8152600401602060405180830381865afa1580156104e0573d6000803e3d6000fd5b505050506040513d601f19601f820116820180604052508101906105049190611354565b6040516001600160e01b031960e084901b1681526004810191909152336024820152604401602060405180830381865afa158015610546573d6000803e3d6000fd5b505050506040513d601f19601f8201168201806040525081019061056a919061136d565b61058757604051637bfa4b9f60e01b815260040160405180910390fd5b60648111156105a957604051631f3b85d360e01b815260040160405180910390fd5b600680546001600160801b03808416600160801b0291161790556040517f11c986d66a5cbb26713a2d3ad1b445030a328dcb7dad73da38012356d07c56cb906105f59083815260200190565b60405180910390a150565b6000336104238185856106138383610c09565b61061d91906113a5565b610c34565b6001600160a01b038116600090815260208190526040812054610429565b610648610f77565b60006106548233610b2c565b9050806000036106775760405163afb0be3360e01b815260040160405180910390fd5b6000828152600860209081526040808320338452909152812080548392906106a09084906113a5565b909155506106b090503382610fd0565b60405181815233907ffc30cddea38e2bf4d6ea7d3f9ed3b6ad7f176419f4963bd81318067a4aee73fe9060200160405180910390a2506106f06001600555565b50565b7f00000000000000000000000000000000000000000000000000000000000000006001600160a01b03166391d148547f00000000000000000000000000000000000000000000000000000000000000006001600160a01b03166307e2cea56040518163ffffffff1660e01b8152600401602060405180830381865afa158015610780573d6000803e3d6000fd5b505050506040513d601f19601f820116820180604052508101906107a49190611354565b6040516001600160e01b031960e084901b1681526004810191909152336024820152604401602060405180830381865afa1580156107e6573d6000803e3d6000fd5b505050506040513d601f19601f8201168201806040525081019061080a919061136d565b61082757604051631bc2178f60e01b815260040160405180910390fd5b61082f610f77565b6001600160a01b03811660009081526020819052604081205460065490919060649061086b90600160801b90046001600160801b0316846113b8565b61087591906113cf565b9050818111156108825750805b61088c838261108f565b6001600160a01b038316600090815260076020526040812080548392906108b49084906113a5565b90915550506040518181526001600160a01b038416907f92473960d0bf1856e93dde4e6a776ae2423a482ba52e746c605be8290909b4d39060200160405180910390a250506109036001600555565b5050565b6060600480546103929061131a565b7f00000000000000000000000000000000000000000000000000000000000000006001600160a01b03166391d148547f00000000000000000000000000000000000000000000000000000000000000006001600160a01b031663662580686040518163ffffffff1660e01b8152600401602060405180830381865afa1580156109a3573d6000803e3d6000fd5b505050506040513d601f19601f820116820180604052508101906109c79190611354565b6040516001600160e01b031960e084901b1681526004810191909152336024820152604401602060405180830381865afa158015610a09573d6000803e3d6000fd5b505050506040513d601f19601f82011682018060405250810190610a2d919061136d565b610a4a57604051637bfa4b9f60e01b815260040160405180910390fd5b600680546fffffffffffffffffffffffffffffffff19166001600160801b0383161790556040518181527f41d466ebd06fb97e7786086ac8b69b7eb7da798592036251291d34e9791cde01906020016105f5565b60003381610aac8286610c09565b905083811015610b115760405162461bcd60e51b815260206004820152602560248201527f45524332303a2064656372656173656420616c6c6f77616e63652062656c6f77604482015264207a65726f60d81b60648201526084015b60405180910390fd5b6104488286868403610c34565b600033610423818585610dd3565b6040516391f3c3ef60e01b81526004810183905260009081906001600160a01b037f000000000000000000000000000000000000000000000000000000000000000016906391f3c3ef90602401602060405180830381865afa158015610b96573d6000803e3d6000fd5b505050506040513d601f19601f82011682018060405250810190610bba9190611354565b60008581526008602090815260408083206001600160a01b038816845290915290205460065491925090610bf7906001600160801b0316836113b8565b610c0191906113f1565b949350505050565b6001600160a01b03918216600090815260016020908152604080832093909416825291909152205490565b6001600160a01b038316610c965760405162461bcd60e51b8152602060048201526024808201527f45524332303a20617070726f76652066726f6d20746865207a65726f206164646044820152637265737360e01b6064820152608401610b08565b6001600160a01b038216610cf75760405162461bcd60e51b815260206004820152602260248201527f45524332303a20617070726f766520746f20746865207a65726f206164647265604482015261737360f01b6064820152608401610b08565b6001600160a01b0383811660008181526001602090815260408083209487168084529482529182902085905590518481527f8c5be1e5ebec7d5bd14f71427d1e84f3dd0314c0f7b2291e5b200ac8c7c3b92591015b60405180910390a3505050565b6000610d658484610c09565b90506000198114610dcd5781811015610dc05760405162461bcd60e51b815260206004820152601d60248201527f45524332303a20696e73756666696369656e7420616c6c6f77616e63650000006044820152606401610b08565b610dcd8484848403610c34565b50505050565b6001600160a01b038316610e375760405162461bcd60e51b815260206004820152602560248201527f45524332303a207472616e736665722066726f6d20746865207a65726f206164604482015264647265737360d81b6064820152608401610b08565b6001600160a01b038216610e995760405162461bcd60e51b815260206004820152602360248201527f45524332303a207472616e7366657220746f20746865207a65726f206164647260448201526265737360e81b6064820152608401610b08565b6001600160a01b03831660009081526020819052604090205481811015610f115760405162461bcd60e51b815260206004820152602660248201527f45524332303a207472616e7366657220616d6f756e7420657863656564732062604482015265616c616e636560d01b6064820152608401610b08565b6001600160a01b03848116600081815260208181526040808320878703905593871680835291849020805487019055925185815290927fddf252ad1be2c89b69c2b068fc378daa952ba7f163c4a11628f55a4df523b3ef910160405180910390a3610dcd565b600260055403610fc95760405162461bcd60e51b815260206004820152601f60248201527f5265656e7472616e637947756172643a207265656e7472616e742063616c6c006044820152606401610b08565b6002600555565b6001600160a01b0382166110265760405162461bcd60e51b815260206004820152601f60248201527f45524332303a206d696e7420746f20746865207a65726f2061646472657373006044820152606401610b08565b806002600082825461103891906113a5565b90915550506001600160a01b038216600081815260208181526040808320805486019055518481527fddf252ad1be2c89b69c2b068fc378daa952ba7f163c4a11628f55a4df523b3ef910160405180910390a35050565b6001600160a01b0382166110ef5760405162461bcd60e51b815260206004820152602160248201527f45524332303a206275726e2066726f6d20746865207a65726f206164647265736044820152607360f81b6064820152608401610b08565b6001600160a01b038216600090815260208190526040902054818110156111635760405162461bcd60e51b815260206004820152602260248201527f45524332303a206275726e20616d6f756e7420657863656564732062616c616e604482015261636560f01b6064820152608401610b08565b6001600160a01b0383166000818152602081815260408083208686039055600280548790039055518581529192917fddf252ad1be2c89b69c2b068fc378daa952ba7f163c4a11628f55a4df523b3ef9101610d4c565b600060208083528351808285015260005b818110156111e6578581018301518582016040015282016111ca565b506000604082860101526040601f19601f8301168501019250505092915050565b80356001600160a01b038116811461121e57600080fd5b919050565b6000806040838503121561123657600080fd5b61123f83611207565b946020939093013593505050565b60008060006060848603121561126257600080fd5b61126b84611207565b925061127960208501611207565b9150604084013590509250925092565b60006020828403121561129b57600080fd5b5035919050565b6000602082840312156112b457600080fd5b6112bd82611207565b9392505050565b600080604083850312156112d757600080fd5b823591506112e760208401611207565b90509250929050565b6000806040838503121561130357600080fd5b61130c83611207565b91506112e760208401611207565b600181811c9082168061132e57607f821691505b60208210810361134e57634e487b7160e01b600052602260045260246000fd5b50919050565b60006020828403121561136657600080fd5b5051919050565b60006020828403121561137f57600080fd5b815180151581146112bd57600080fd5b634e487b7160e01b600052601160045260246000fd5b808201808211156104295761042961138f565b80820281158282048414176104295761042961138f565b6000826113ec57634e487b7160e01b600052601260045260246000fd5b500490565b818103818111156104295761042961138f56fea2646970667358221220b9244cefede71d38566b7a4a3ddea7d0f0758b13fbb89948ab0e1abc31c3ba3564736f6c63430008130033",
  "linkReferences": {},
  "deployedLinkReferences": {}
}